{
  "_format": "hh-sol-artifact-1",
  "contractName": "Collectibles",
  "sourceName": "contracts/Collectibles.sol",
  "abi": [
    {
      "inputs": [],
      "stateMutability": "nonpayable",
      "type": "constructor"
    },
    {
      "anonymous": false,
      "inputs": [
        {
          "indexed": true,
          "internalType": "address",
          "name": "owner",
          "type": "address"
        },
        {
          "indexed": true,
          "internalType": "address",
          "name": "approved",
          "type": "address"
        },
        {
          "indexed": true,
          "internalType": "uint256",
          "name": "tokenId",
          "type": "uint256"
        }
      ],
      "name": "Approval",
      "type": "event"
    },
    {
      "anonymous": false,
      "inputs": [
        {
          "indexed": true,
          "internalType": "address",
          "name": "owner",
          "type": "address"
        },
        {
          "indexed": true,
          "internalType": "address",
          "name": "operator",
          "type": "address"
        },
        {
          "indexed": false,
          "internalType": "bool",
          "name": "approved",
          "type": "bool"
        }
      ],
      "name": "ApprovalForAll",
      "type": "event"
    },
    {
      "anonymous": false,
      "inputs": [
        {
          "indexed": true,
          "internalType": "uint256",
          "name": "tokenId",
          "type": "uint256"
        },
        {
          "indexed": true,
          "internalType": "address",
          "name": "owner",
          "type": "address"
        },
        {
          "indexed": false,
          "internalType": "string",
          "name": "name",
          "type": "string"
        },
        {
          "indexed": false,
          "internalType": "uint256",
          "name": "price",
          "type": "uint256"
        },
        {
          "indexed": false,
          "internalType": "string",
          "name": "tokenURI",
          "type": "string"
        }
      ],
      "name": "CollectibleCreated",
      "type": "event"
    },
    {
      "anonymous": false,
      "inputs": [
        {
          "indexed": true,
          "internalType": "address",
          "name": "previousOwner",
          "type": "address"
        },
        {
          "indexed": true,
          "internalType": "address",
          "name": "newOwner",
          "type": "address"
        }
      ],
      "name": "OwnershipTransferred",
      "type": "event"
    },
    {
      "anonymous": false,
      "inputs": [
        {
          "indexed": true,
          "internalType": "address",
          "name": "from",
          "type": "address"
        },
        {
          "indexed": true,
          "internalType": "address",
          "name": "to",
          "type": "address"
        },
        {
          "indexed": true,
          "internalType": "uint256",
          "name": "tokenId",
          "type": "uint256"
        }
      ],
      "name": "Transfer",
      "type": "event"
    },
    {
      "anonymous": false,
      "inputs": [
        {
          "indexed": true,
          "internalType": "address",
          "name": "from",
          "type": "address"
        },
        {
          "indexed": true,
          "internalType": "address",
          "name": "to",
          "type": "address"
        }
      ],
      "name": "WhitelistedUpdated",
      "type": "event"
    },
    {
      "inputs": [
        {
          "internalType": "address",
          "name": "to",
          "type": "address"
        },
        {
          "internalType": "uint256",
          "name": "tokenId",
          "type": "uint256"
        }
      ],
      "name": "approve",
      "outputs": [],
      "stateMutability": "nonpayable",
      "type": "function"
    },
    {
      "inputs": [
        {
          "internalType": "address",
          "name": "owner",
          "type": "address"
        }
      ],
      "name": "balanceOf",
      "outputs": [
        {
          "internalType": "uint256",
          "name": "",
          "type": "uint256"
        }
      ],
      "stateMutability": "view",
      "type": "function"
    },
    {
      "inputs": [
        {
          "internalType": "uint256",
          "name": "",
          "type": "uint256"
        }
      ],
      "name": "collectibles",
      "outputs": [
        {
          "internalType": "uint256",
          "name": "id",
          "type": "uint256"
        },
        {
          "internalType": "address",
          "name": "owner",
          "type": "address"
        },
        {
          "internalType": "string",
          "name": "name",
          "type": "string"
        },
        {
          "internalType": "uint256",
          "name": "price",
          "type": "uint256"
        }
      ],
      "stateMutability": "view",
      "type": "function"
    },
    {
      "inputs": [
        {
          "internalType": "string",
          "name": "name",
          "type": "string"
        },
        {
          "internalType": "uint256",
          "name": "price",
          "type": "uint256"
        },
        {
          "internalType": "string",
          "name": "tokenURI",
          "type": "string"
        }
      ],
      "name": "createCollectible",
      "outputs": [
        {
          "internalType": "uint256",
          "name": "",
          "type": "uint256"
        }
      ],
      "stateMutability": "nonpayable",
      "type": "function"
    },
    {
      "inputs": [
        {
          "internalType": "uint256",
          "name": "tokenId",
          "type": "uint256"
        }
      ],
      "name": "getApproved",
      "outputs": [
        {
          "internalType": "address",
          "name": "",
          "type": "address"
        }
      ],
      "stateMutability": "view",
      "type": "function"
    },
    {
      "inputs": [
        {
          "internalType": "uint256",
          "name": "tokenId",
          "type": "uint256"
        }
      ],
      "name": "getCollectible",
      "outputs": [
        {
          "components": [
            {
              "internalType": "uint256",
              "name": "id",
              "type": "uint256"
            },
            {
              "internalType": "address",
              "name": "owner",
              "type": "address"
            },
            {
              "internalType": "string",
              "name": "name",
              "type": "string"
            },
            {
              "internalType": "uint256",
              "name": "price",
              "type": "uint256"
            }
          ],
          "internalType": "struct Collectibles.Collectible",
          "name": "",
          "type": "tuple"
        }
      ],
      "stateMutability": "view",
      "type": "function"
    },
    {
      "inputs": [],
      "name": "getWhitelisted",
      "outputs": [
        {
          "internalType": "address",
          "name": "",
          "type": "address"
        }
      ],
      "stateMutability": "view",
      "type": "function"
    },
    {
      "inputs": [
        {
          "internalType": "address",
          "name": "owner",
          "type": "address"
        },
        {
          "internalType": "address",
          "name": "operator",
          "type": "address"
        }
      ],
      "name": "isApprovedForAll",
      "outputs": [
        {
          "internalType": "bool",
          "name": "",
          "type": "bool"
        }
      ],
      "stateMutability": "view",
      "type": "function"
    },
    {
      "inputs": [],
      "name": "name",
      "outputs": [
        {
          "internalType": "string",
          "name": "",
          "type": "string"
        }
      ],
      "stateMutability": "view",
      "type": "function"
    },
    {
      "inputs": [],
      "name": "owner",
      "outputs": [
        {
          "internalType": "address",
          "name": "",
          "type": "address"
        }
      ],
      "stateMutability": "view",
      "type": "function"
    },
    {
      "inputs": [
        {
          "internalType": "uint256",
          "name": "tokenId",
          "type": "uint256"
        }
      ],
      "name": "ownerOf",
      "outputs": [
        {
          "internalType": "address",
          "name": "",
          "type": "address"
        }
      ],
      "stateMutability": "view",
      "type": "function"
    },
    {
      "inputs": [],
      "name": "renounceOwnership",
      "outputs": [],
      "stateMutability": "nonpayable",
      "type": "function"
    },
    {
      "inputs": [
        {
          "internalType": "address",
          "name": "from",
          "type": "address"
        },
        {
          "internalType": "address",
          "name": "to",
          "type": "address"
        },
        {
          "internalType": "uint256",
          "name": "tokenId",
          "type": "uint256"
        }
      ],
      "name": "safeTransferFrom",
      "outputs": [],
      "stateMutability": "nonpayable",
      "type": "function"
    },
    {
      "inputs": [
        {
          "internalType": "address",
          "name": "from",
          "type": "address"
        },
        {
          "internalType": "address",
          "name": "to",
          "type": "address"
        },
        {
          "internalType": "uint256",
          "name": "tokenId",
          "type": "uint256"
        },
        {
          "internalType": "bytes",
          "name": "_data",
          "type": "bytes"
        }
      ],
      "name": "safeTransferFrom",
      "outputs": [],
      "stateMutability": "nonpayable",
      "type": "function"
    },
    {
      "inputs": [
        {
          "internalType": "address",
          "name": "operator",
          "type": "address"
        },
        {
          "internalType": "bool",
          "name": "approved",
          "type": "bool"
        }
      ],
      "name": "setApprovalForAll",
      "outputs": [],
      "stateMutability": "nonpayable",
      "type": "function"
    },
    {
      "inputs": [
        {
          "internalType": "bytes4",
          "name": "interfaceId",
          "type": "bytes4"
        }
      ],
      "name": "supportsInterface",
      "outputs": [
        {
          "internalType": "bool",
          "name": "",
          "type": "bool"
        }
      ],
      "stateMutability": "view",
      "type": "function"
    },
    {
      "inputs": [],
      "name": "symbol",
      "outputs": [
        {
          "internalType": "string",
          "name": "",
          "type": "string"
        }
      ],
      "stateMutability": "view",
      "type": "function"
    },
    {
      "inputs": [
        {
          "internalType": "uint256",
          "name": "tokenId",
          "type": "uint256"
        }
      ],
      "name": "tokenURI",
      "outputs": [
        {
          "internalType": "string",
          "name": "",
          "type": "string"
        }
      ],
      "stateMutability": "view",
      "type": "function"
    },
    {
      "inputs": [],
      "name": "totalCollectibles",
      "outputs": [
        {
          "internalType": "uint256",
          "name": "",
          "type": "uint256"
        }
      ],
      "stateMutability": "view",
      "type": "function"
    },
    {
      "inputs": [
        {
          "internalType": "address",
          "name": "from",
          "type": "address"
        },
        {
          "internalType": "address",
          "name": "to",
          "type": "address"
        },
        {
          "internalType": "uint256",
          "name": "tokenId",
          "type": "uint256"
        }
      ],
      "name": "transferFrom",
      "outputs": [],
      "stateMutability": "nonpayable",
      "type": "function"
    },
    {
      "inputs": [
        {
          "internalType": "address",
          "name": "newOwner",
          "type": "address"
        }
      ],
      "name": "transferOwnership",
      "outputs": [],
      "stateMutability": "nonpayable",
      "type": "function"
    },
    {
      "inputs": [
        {
          "internalType": "uint256",
          "name": "tokenId",
          "type": "uint256"
        },
        {
          "internalType": "address",
          "name": "newOwner",
          "type": "address"
        }
      ],
      "name": "updateCollectibleOwner",
      "outputs": [],
      "stateMutability": "nonpayable",
      "type": "function"
    },
    {
      "inputs": [
        {
          "internalType": "address",
          "name": "whitelisted",
          "type": "address"
        }
      ],
      "name": "updateWhitelisted",
      "outputs": [],
      "stateMutability": "nonpayable",
      "type": "function"
    }
  ],
  "bytecode": "0x60806040523480156200001157600080fd5b506040518060400160405280600c81526020017f436f6c6c65637469626c657300000000000000000000000000000000000000008152506040518060400160405280600381526020017f434c420000000000000000000000000000000000000000000000000000000000815250816000908051906020019062000096929190620001a6565b508060019080519060200190620000af929190620001a6565b505050620000d2620000c6620000d860201b60201c565b620000e060201b60201c565b620002bb565b600033905090565b6000600760009054906101000a900473ffffffffffffffffffffffffffffffffffffffff16905081600760006101000a81548173ffffffffffffffffffffffffffffffffffffffff021916908373ffffffffffffffffffffffffffffffffffffffff1602179055508173ffffffffffffffffffffffffffffffffffffffff168173ffffffffffffffffffffffffffffffffffffffff167f8be0079c531659141344cd1fd0a4f28419497f9722a3daafe3b4186f6b6457e060405160405180910390a35050565b828054620001b49062000256565b90600052602060002090601f016020900481019282620001d8576000855562000224565b82601f10620001f357805160ff191683800117855562000224565b8280016001018555821562000224579182015b828111156200022357825182559160200191906001019062000206565b5b50905062000233919062000237565b5090565b5b808211156200025257600081600090555060010162000238565b5090565b600060028204905060018216806200026f57607f821691505b602082108114156200028657620002856200028c565b5b50919050565b7f4e487b7100000000000000000000000000000000000000000000000000000000600052602260045260246000fd5b613a4f80620002cb6000396000f3fe608060405234801561001057600080fd5b506004361061014d5760003560e01c806370a08231116100c3578063a22cb4651161007c578063a22cb465146103b3578063b88d4fde146103cf578063c87b56dd146103eb578063e985e9c51461041b578063ee46df281461044b578063f2fde38b146104695761014d565b806370a08231146102ef578063715018a61461031f57806372d99675146103295780638da5cb5b1461035957806395d89b41146103775780639b372b2b146103955761014d565b80630b69a5d9116101155780630b69a5d91461021f57806323b872dd1461023b57806325468e711461025757806342842e0e14610273578063510112641461028f5780636352211e146102bf5761014d565b806301ffc9a71461015257806306fdde0314610182578063081812fc146101a0578063095ea7b3146101d05780630a09859d146101ec575b600080fd5b61016c600480360381019061016791906126a1565b610485565b6040516101799190612ca8565b60405180910390f35b61018a610567565b6040516101979190612cc3565b60405180910390f35b6101ba60048036038101906101b59190612772565b6105f9565b6040516101c79190612c41565b60405180910390f35b6101ea60048036038101906101e59190612665565b61067e565b005b61020660048036038101906102019190612772565b610796565b6040516102169493929190612fe7565b60405180910390f35b610239600480360381019061023491906124fa565b61087e565b005b6102556004803603810190610250919061255f565b6109ba565b005b610271600480360381019061026c919061279b565b610a1a565b005b61028d6004803603810190610288919061255f565b610b3f565b005b6102a960048036038101906102a491906126f3565b610b5f565b6040516102b69190612fcc565b60405180910390f35b6102d960048036038101906102d49190612772565b610ccd565b6040516102e69190612c41565b60405180910390f35b610309600480360381019061030491906124fa565b610d7f565b6040516103169190612fcc565b60405180910390f35b610327610e37565b005b610343600480360381019061033e9190612772565b610ebf565b6040516103509190612faa565b60405180910390f35b610361611064565b60405161036e9190612c41565b60405180910390f35b61037f61108e565b60405161038c9190612cc3565b60405180910390f35b61039d611120565b6040516103aa9190612c41565b60405180910390f35b6103cd60048036038101906103c89190612629565b61114a565b005b6103e960048036038101906103e491906125ae565b6112cb565b005b61040560048036038101906104009190612772565b61132d565b6040516104129190612cc3565b60405180910390f35b61043560048036038101906104309190612523565b61147f565b6040516104429190612ca8565b60405180910390f35b610453611513565b6040516104609190612fcc565b60405180910390f35b610483600480360381019061047e91906124fa565b611520565b005b60007f80ac58cd000000000000000000000000000000000000000000000000000000007bffffffffffffffffffffffffffffffffffffffffffffffffffffffff1916827bffffffffffffffffffffffffffffffffffffffffffffffffffffffff1916148061055057507f5b5e139f000000000000000000000000000000000000000000000000000000007bffffffffffffffffffffffffffffffffffffffffffffffffffffffff1916827bffffffffffffffffffffffffffffffffffffffffffffffffffffffff1916145b80610560575061055f82611618565b5b9050919050565b6060600080546105769061327f565b80601f01602080910402602001604051908101604052809291908181526020018280546105a29061327f565b80156105ef5780601f106105c4576101008083540402835291602001916105ef565b820191906000526020600020905b8154815290600101906020018083116105d257829003601f168201915b5050505050905090565b600061060482611682565b610643576040517f08c379a000000000000000000000000000000000000000000000000000000000815260040161063a90612eea565b60405180910390fd5b6004600083815260200190815260200160002060009054906101000a900473ffffffffffffffffffffffffffffffffffffffff169050919050565b600061068982610ccd565b90508073ffffffffffffffffffffffffffffffffffffffff168373ffffffffffffffffffffffffffffffffffffffff1614156106fa576040517f08c379a00000000000000000000000000000000000000000000000000000000081526004016106f190612f6a565b60405180910390fd5b8073ffffffffffffffffffffffffffffffffffffffff166107196116ee565b73ffffffffffffffffffffffffffffffffffffffff1614806107485750610747816107426116ee565b61147f565b5b610787576040517f08c379a000000000000000000000000000000000000000000000000000000000815260040161077e90612e2a565b60405180910390fd5b61079183836116f6565b505050565b600881815481106107a657600080fd5b90600052602060002090600402016000915090508060000154908060010160009054906101000a900473ffffffffffffffffffffffffffffffffffffffff16908060020180546107f59061327f565b80601f01602080910402602001604051908101604052809291908181526020018280546108219061327f565b801561086e5780601f106108435761010080835404028352916020019161086e565b820191906000526020600020905b81548152906001019060200180831161085157829003601f168201915b5050505050908060030154905084565b6108866116ee565b73ffffffffffffffffffffffffffffffffffffffff166108a4611064565b73ffffffffffffffffffffffffffffffffffffffff16146108fa576040517f08c379a00000000000000000000000000000000000000000000000000000000081526004016108f190612f0a565b60405180910390fd5b8073ffffffffffffffffffffffffffffffffffffffff16600960009054906101000a900473ffffffffffffffffffffffffffffffffffffffff1673ffffffffffffffffffffffffffffffffffffffff167fae0f35d4df22425472a0dadaa433cb9e51506759e7407fda2ad996ce04cb9c8d60405160405180910390a380600960006101000a81548173ffffffffffffffffffffffffffffffffffffffff021916908373ffffffffffffffffffffffffffffffffffffffff16021790555050565b6109cb6109c56116ee565b826117af565b610a0a576040517f08c379a0000000000000000000000000000000000000000000000000000000008152600401610a0190612f8a565b60405180910390fd5b610a1583838361188d565b505050565b600960009054906101000a900473ffffffffffffffffffffffffffffffffffffffff1673ffffffffffffffffffffffffffffffffffffffff16610a5b6116ee565b73ffffffffffffffffffffffffffffffffffffffff1614610ab1576040517f08c379a0000000000000000000000000000000000000000000000000000000008152600401610aa890612d8a565b60405180910390fd5b8060088381548110610aec577f4e487b7100000000000000000000000000000000000000000000000000000000600052603260045260246000fd5b906000526020600020906004020160010160006101000a81548173ffffffffffffffffffffffffffffffffffffffff021916908373ffffffffffffffffffffffffffffffffffffffff1602179055505050565b610b5a838383604051806020016040528060008152506112cb565b505050565b600080600880549050905060086040518060800160405280838152602001610b856116ee565b73ffffffffffffffffffffffffffffffffffffffff1681526020018781526020018681525090806001815401808255809150506001900390600052602060002090600402016000909190919091506000820151816000015560208201518160010160006101000a81548173ffffffffffffffffffffffffffffffffffffffff021916908373ffffffffffffffffffffffffffffffffffffffff1602179055506040820151816002019080519060200190610c409291906122e0565b50606082015181600301555050610c5e610c586116ee565b82611ae9565b610c688184611b07565b610c706116ee565b73ffffffffffffffffffffffffffffffffffffffff16817fe93e9cc6f489705e9b9d245497ca22b8772dc319fb15e531949c6c9b5533efa6878787604051610cba93929190612ce5565b60405180910390a3809150509392505050565b6000806002600084815260200190815260200160002060009054906101000a900473ffffffffffffffffffffffffffffffffffffffff169050600073ffffffffffffffffffffffffffffffffffffffff168173ffffffffffffffffffffffffffffffffffffffff161415610d76576040517f08c379a0000000000000000000000000000000000000000000000000000000008152600401610d6d90612e6a565b60405180910390fd5b80915050919050565b60008073ffffffffffffffffffffffffffffffffffffffff168273ffffffffffffffffffffffffffffffffffffffff161415610df0576040517f08c379a0000000000000000000000000000000000000000000000000000000008152600401610de790612e4a565b60405180910390fd5b600360008373ffffffffffffffffffffffffffffffffffffffff1673ffffffffffffffffffffffffffffffffffffffff168152602001908152602001600020549050919050565b610e3f6116ee565b73ffffffffffffffffffffffffffffffffffffffff16610e5d611064565b73ffffffffffffffffffffffffffffffffffffffff1614610eb3576040517f08c379a0000000000000000000000000000000000000000000000000000000008152600401610eaa90612f0a565b60405180910390fd5b610ebd6000611b7b565b565b610ec7612366565b6008805490508210610f0e576040517f08c379a0000000000000000000000000000000000000000000000000000000008152600401610f0590612e0a565b60405180910390fd5b60088281548110610f48577f4e487b7100000000000000000000000000000000000000000000000000000000600052603260045260246000fd5b9060005260206000209060040201604051806080016040529081600082015481526020016001820160009054906101000a900473ffffffffffffffffffffffffffffffffffffffff1673ffffffffffffffffffffffffffffffffffffffff1673ffffffffffffffffffffffffffffffffffffffff168152602001600282018054610fd19061327f565b80601f0160208091040260200160405190810160405280929190818152602001828054610ffd9061327f565b801561104a5780601f1061101f5761010080835404028352916020019161104a565b820191906000526020600020905b81548152906001019060200180831161102d57829003601f168201915b505050505081526020016003820154815250509050919050565b6000600760009054906101000a900473ffffffffffffffffffffffffffffffffffffffff16905090565b60606001805461109d9061327f565b80601f01602080910402602001604051908101604052809291908181526020018280546110c99061327f565b80156111165780601f106110eb57610100808354040283529160200191611116565b820191906000526020600020905b8154815290600101906020018083116110f957829003601f168201915b5050505050905090565b6000600960009054906101000a900473ffffffffffffffffffffffffffffffffffffffff16905090565b6111526116ee565b73ffffffffffffffffffffffffffffffffffffffff168273ffffffffffffffffffffffffffffffffffffffff1614156111c0576040517f08c379a00000000000000000000000000000000000000000000000000000000081526004016111b790612dca565b60405180910390fd5b80600560006111cd6116ee565b73ffffffffffffffffffffffffffffffffffffffff1673ffffffffffffffffffffffffffffffffffffffff16815260200190815260200160002060008473ffffffffffffffffffffffffffffffffffffffff1673ffffffffffffffffffffffffffffffffffffffff16815260200190815260200160002060006101000a81548160ff0219169083151502179055508173ffffffffffffffffffffffffffffffffffffffff1661127a6116ee565b73ffffffffffffffffffffffffffffffffffffffff167f17307eab39ab6107e8899845ad3d59bd9653f200f220920489ca2b5937696c31836040516112bf9190612ca8565b60405180910390a35050565b6112dc6112d66116ee565b836117af565b61131b576040517f08c379a000000000000000000000000000000000000000000000000000000000815260040161131290612f8a565b60405180910390fd5b61132784848484611c41565b50505050565b606061133882611682565b611377576040517f08c379a000000000000000000000000000000000000000000000000000000000815260040161136e90612eca565b60405180910390fd5b60006006600084815260200190815260200160002080546113979061327f565b80601f01602080910402602001604051908101604052809291908181526020018280546113c39061327f565b80156114105780601f106113e557610100808354040283529160200191611410565b820191906000526020600020905b8154815290600101906020018083116113f357829003601f168201915b505050505090506000611421611c9d565b905060008151141561143757819250505061147a565b60008251111561146c578082604051602001611454929190612c1d565b6040516020818303038152906040529250505061147a565b61147584611cb4565b925050505b919050565b6000600560008473ffffffffffffffffffffffffffffffffffffffff1673ffffffffffffffffffffffffffffffffffffffff16815260200190815260200160002060008373ffffffffffffffffffffffffffffffffffffffff1673ffffffffffffffffffffffffffffffffffffffff16815260200190815260200160002060009054906101000a900460ff16905092915050565b6000600880549050905090565b6115286116ee565b73ffffffffffffffffffffffffffffffffffffffff16611546611064565b73ffffffffffffffffffffffffffffffffffffffff161461159c576040517f08c379a000000000000000000000000000000000000000000000000000000000815260040161159390612f0a565b60405180910390fd5b600073ffffffffffffffffffffffffffffffffffffffff168173ffffffffffffffffffffffffffffffffffffffff16141561160c576040517f08c379a000000000000000000000000000000000000000000000000000000000815260040161160390612d4a565b60405180910390fd5b61161581611b7b565b50565b60007f01ffc9a7000000000000000000000000000000000000000000000000000000007bffffffffffffffffffffffffffffffffffffffffffffffffffffffff1916827bffffffffffffffffffffffffffffffffffffffffffffffffffffffff1916149050919050565b60008073ffffffffffffffffffffffffffffffffffffffff166002600084815260200190815260200160002060009054906101000a900473ffffffffffffffffffffffffffffffffffffffff1673ffffffffffffffffffffffffffffffffffffffff1614159050919050565b600033905090565b816004600083815260200190815260200160002060006101000a81548173ffffffffffffffffffffffffffffffffffffffff021916908373ffffffffffffffffffffffffffffffffffffffff160217905550808273ffffffffffffffffffffffffffffffffffffffff1661176983610ccd565b73ffffffffffffffffffffffffffffffffffffffff167f8c5be1e5ebec7d5bd14f71427d1e84f3dd0314c0f7b2291e5b200ac8c7c3b92560405160405180910390a45050565b60006117ba82611682565b6117f9576040517f08c379a00000000000000000000000000000000000000000000000000000000081526004016117f090612dea565b60405180910390fd5b600061180483610ccd565b90508073ffffffffffffffffffffffffffffffffffffffff168473ffffffffffffffffffffffffffffffffffffffff16148061187357508373ffffffffffffffffffffffffffffffffffffffff1661185b846105f9565b73ffffffffffffffffffffffffffffffffffffffff16145b806118845750611883818561147f565b5b91505092915050565b8273ffffffffffffffffffffffffffffffffffffffff166118ad82610ccd565b73ffffffffffffffffffffffffffffffffffffffff1614611903576040517f08c379a00000000000000000000000000000000000000000000000000000000081526004016118fa90612f2a565b60405180910390fd5b600073ffffffffffffffffffffffffffffffffffffffff168273ffffffffffffffffffffffffffffffffffffffff161415611973576040517f08c379a000000000000000000000000000000000000000000000000000000000815260040161196a90612daa565b60405180910390fd5b61197e838383611d5b565b6119896000826116f6565b6001600360008573ffffffffffffffffffffffffffffffffffffffff1673ffffffffffffffffffffffffffffffffffffffff16815260200190815260200160002060008282546119d99190613195565b925050819055506001600360008473ffffffffffffffffffffffffffffffffffffffff1673ffffffffffffffffffffffffffffffffffffffff1681526020019081526020016000206000828254611a30919061310e565b92505081905550816002600083815260200190815260200160002060006101000a81548173ffffffffffffffffffffffffffffffffffffffff021916908373ffffffffffffffffffffffffffffffffffffffff160217905550808273ffffffffffffffffffffffffffffffffffffffff168473ffffffffffffffffffffffffffffffffffffffff167fddf252ad1be2c89b69c2b068fc378daa952ba7f163c4a11628f55a4df523b3ef60405160405180910390a4505050565b611b03828260405180602001604052806000815250611d60565b5050565b611b1082611682565b611b4f576040517f08c379a0000000000000000000000000000000000000000000000000000000008152600401611b4690612e8a565b60405180910390fd5b80600660008481526020019081526020016000209080519060200190611b769291906122e0565b505050565b6000600760009054906101000a900473ffffffffffffffffffffffffffffffffffffffff16905081600760006101000a81548173ffffffffffffffffffffffffffffffffffffffff021916908373ffffffffffffffffffffffffffffffffffffffff1602179055508173ffffffffffffffffffffffffffffffffffffffff168173ffffffffffffffffffffffffffffffffffffffff167f8be0079c531659141344cd1fd0a4f28419497f9722a3daafe3b4186f6b6457e060405160405180910390a35050565b611c4c84848461188d565b611c5884848484611dbb565b611c97576040517f08c379a0000000000000000000000000000000000000000000000000000000008152600401611c8e90612d2a565b60405180910390fd5b50505050565b606060405180602001604052806000815250905090565b6060611cbf82611682565b611cfe576040517f08c379a0000000000000000000000000000000000000000000000000000000008152600401611cf590612f4a565b60405180910390fd5b6000611d08611c9d565b90506000815111611d285760405180602001604052806000815250611d53565b80611d3284611f52565b604051602001611d43929190612c1d565b6040516020818303038152906040525b915050919050565b505050565b611d6a83836120ff565b611d776000848484611dbb565b611db6576040517f08c379a0000000000000000000000000000000000000000000000000000000008152600401611dad90612d2a565b60405180910390fd5b505050565b6000611ddc8473ffffffffffffffffffffffffffffffffffffffff166122cd565b15611f45578373ffffffffffffffffffffffffffffffffffffffff1663150b7a02611e056116ee565b8786866040518563ffffffff1660e01b8152600401611e279493929190612c5c565b602060405180830381600087803b158015611e4157600080fd5b505af1925050508015611e7257506040513d601f19601f82011682018060405250810190611e6f91906126ca565b60015b611ef5573d8060008114611ea2576040519150601f19603f3d011682016040523d82523d6000602084013e611ea7565b606091505b50600081511415611eed576040517f08c379a0000000000000000000000000000000000000000000000000000000008152600401611ee490612d2a565b60405180910390fd5b805181602001fd5b63150b7a0260e01b7bffffffffffffffffffffffffffffffffffffffffffffffffffffffff1916817bffffffffffffffffffffffffffffffffffffffffffffffffffffffff191614915050611f4a565b600190505b949350505050565b60606000821415611f9a576040518060400160405280600181526020017f300000000000000000000000000000000000000000000000000000000000000081525090506120fa565b600082905060005b60008214611fcc578080611fb5906132e2565b915050600a82611fc59190613164565b9150611fa2565b60008167ffffffffffffffff81111561200e577f4e487b7100000000000000000000000000000000000000000000000000000000600052604160045260246000fd5b6040519080825280601f01601f1916602001820160405280156120405781602001600182028036833780820191505090505b5090505b600085146120f3576001826120599190613195565b9150600a85612068919061332b565b6030612074919061310e565b60f81b8183815181106120b0577f4e487b7100000000000000000000000000000000000000000000000000000000600052603260045260246000fd5b60200101907effffffffffffffffffffffffffffffffffffffffffffffffffffffffffffff1916908160001a905350600a856120ec9190613164565b9450612044565b8093505050505b919050565b600073ffffffffffffffffffffffffffffffffffffffff168273ffffffffffffffffffffffffffffffffffffffff16141561216f576040517f08c379a000000000000000000000000000000000000000000000000000000000815260040161216690612eaa565b60405180910390fd5b61217881611682565b156121b8576040517f08c379a00000000000000000000000000000000000000000000000000000000081526004016121af90612d6a565b60405180910390fd5b6121c460008383611d5b565b6001600360008473ffffffffffffffffffffffffffffffffffffffff1673ffffffffffffffffffffffffffffffffffffffff1681526020019081526020016000206000828254612214919061310e565b92505081905550816002600083815260200190815260200160002060006101000a81548173ffffffffffffffffffffffffffffffffffffffff021916908373ffffffffffffffffffffffffffffffffffffffff160217905550808273ffffffffffffffffffffffffffffffffffffffff16600073ffffffffffffffffffffffffffffffffffffffff167fddf252ad1be2c89b69c2b068fc378daa952ba7f163c4a11628f55a4df523b3ef60405160405180910390a45050565b600080823b905060008111915050919050565b8280546122ec9061327f565b90600052602060002090601f01602090048101928261230e5760008555612355565b82601f1061232757805160ff1916838001178555612355565b82800160010185558215612355579182015b82811115612354578251825591602001919060010190612339565b5b50905061236291906123a4565b5090565b604051806080016040528060008152602001600073ffffffffffffffffffffffffffffffffffffffff16815260200160608152602001600081525090565b5b808211156123bd5760008160009055506001016123a5565b5090565b60006123d46123cf84613058565b613033565b9050828152602081018484840111156123ec57600080fd5b6123f784828561323d565b509392505050565b600061241261240d84613089565b613033565b90508281526020810184848401111561242a57600080fd5b61243584828561323d565b509392505050565b60008135905061244c816139bd565b92915050565b600081359050612461816139d4565b92915050565b600081359050612476816139eb565b92915050565b60008151905061248b816139eb565b92915050565b600082601f8301126124a257600080fd5b81356124b28482602086016123c1565b91505092915050565b600082601f8301126124cc57600080fd5b81356124dc8482602086016123ff565b91505092915050565b6000813590506124f481613a02565b92915050565b60006020828403121561250c57600080fd5b600061251a8482850161243d565b91505092915050565b6000806040838503121561253657600080fd5b60006125448582860161243d565b92505060206125558582860161243d565b9150509250929050565b60008060006060848603121561257457600080fd5b60006125828682870161243d565b93505060206125938682870161243d565b92505060406125a4868287016124e5565b9150509250925092565b600080600080608085870312156125c457600080fd5b60006125d28782880161243d565b94505060206125e38782880161243d565b93505060406125f4878288016124e5565b925050606085013567ffffffffffffffff81111561261157600080fd5b61261d87828801612491565b91505092959194509250565b6000806040838503121561263c57600080fd5b600061264a8582860161243d565b925050602061265b85828601612452565b9150509250929050565b6000806040838503121561267857600080fd5b60006126868582860161243d565b9250506020612697858286016124e5565b9150509250929050565b6000602082840312156126b357600080fd5b60006126c184828501612467565b91505092915050565b6000602082840312156126dc57600080fd5b60006126ea8482850161247c565b91505092915050565b60008060006060848603121561270857600080fd5b600084013567ffffffffffffffff81111561272257600080fd5b61272e868287016124bb565b935050602061273f868287016124e5565b925050604084013567ffffffffffffffff81111561275c57600080fd5b612768868287016124bb565b9150509250925092565b60006020828403121561278457600080fd5b6000612792848285016124e5565b91505092915050565b600080604083850312156127ae57600080fd5b60006127bc858286016124e5565b92505060206127cd8582860161243d565b9150509250929050565b6127e0816131c9565b82525050565b6127ef816131c9565b82525050565b6127fe816131db565b82525050565b600061280f826130ba565b61281981856130d0565b935061282981856020860161324c565b61283281613418565b840191505092915050565b6000612848826130c5565b61285281856130e1565b935061286281856020860161324c565b61286b81613418565b840191505092915050565b6000612881826130c5565b61288b81856130f2565b935061289b81856020860161324c565b6128a481613418565b840191505092915050565b60006128ba826130c5565b6128c48185613103565b93506128d481856020860161324c565b80840191505092915050565b60006128ed6032836130f2565b91506128f882613429565b604082019050919050565b60006129106026836130f2565b915061291b82613478565b604082019050919050565b6000612933601c836130f2565b915061293e826134c7565b602082019050919050565b60006129566028836130f2565b9150612961826134f0565b604082019050919050565b60006129796024836130f2565b91506129848261353f565b604082019050919050565b600061299c6019836130f2565b91506129a78261358e565b602082019050919050565b60006129bf602c836130f2565b91506129ca826135b7565b604082019050919050565b60006129e26026836130f2565b91506129ed82613606565b604082019050919050565b6000612a056038836130f2565b9150612a1082613655565b604082019050919050565b6000612a28602a836130f2565b9150612a33826136a4565b604082019050919050565b6000612a4b6029836130f2565b9150612a56826136f3565b604082019050919050565b6000612a6e602e836130f2565b9150612a7982613742565b604082019050919050565b6000612a916020836130f2565b9150612a9c82613791565b602082019050919050565b6000612ab46031836130f2565b9150612abf826137ba565b604082019050919050565b6000612ad7602c836130f2565b9150612ae282613809565b604082019050919050565b6000612afa6020836130f2565b9150612b0582613858565b602082019050919050565b6000612b1d6029836130f2565b9150612b2882613881565b604082019050919050565b6000612b40602f836130f2565b9150612b4b826138d0565b604082019050919050565b6000612b636021836130f2565b9150612b6e8261391f565b604082019050919050565b6000612b866031836130f2565b9150612b918261396e565b604082019050919050565b6000608083016000830151612bb46000860182612bff565b506020830151612bc760208601826127d7565b5060408301518482036040860152612bdf828261283d565b9150506060830151612bf46060860182612bff565b508091505092915050565b612c0881613233565b82525050565b612c1781613233565b82525050565b6000612c2982856128af565b9150612c3582846128af565b91508190509392505050565b6000602082019050612c5660008301846127e6565b92915050565b6000608082019050612c7160008301876127e6565b612c7e60208301866127e6565b612c8b6040830185612c0e565b8181036060830152612c9d8184612804565b905095945050505050565b6000602082019050612cbd60008301846127f5565b92915050565b60006020820190508181036000830152612cdd8184612876565b905092915050565b60006060820190508181036000830152612cff8186612876565b9050612d0e6020830185612c0e565b8181036040830152612d208184612876565b9050949350505050565b60006020820190508181036000830152612d43816128e0565b9050919050565b60006020820190508181036000830152612d6381612903565b9050919050565b60006020820190508181036000830152612d8381612926565b9050919050565b60006020820190508181036000830152612da381612949565b9050919050565b60006020820190508181036000830152612dc38161296c565b9050919050565b60006020820190508181036000830152612de38161298f565b9050919050565b60006020820190508181036000830152612e03816129b2565b9050919050565b60006020820190508181036000830152612e23816129d5565b9050919050565b60006020820190508181036000830152612e43816129f8565b9050919050565b60006020820190508181036000830152612e6381612a1b565b9050919050565b60006020820190508181036000830152612e8381612a3e565b9050919050565b60006020820190508181036000830152612ea381612a61565b9050919050565b60006020820190508181036000830152612ec381612a84565b9050919050565b60006020820190508181036000830152612ee381612aa7565b9050919050565b60006020820190508181036000830152612f0381612aca565b9050919050565b60006020820190508181036000830152612f2381612aed565b9050919050565b60006020820190508181036000830152612f4381612b10565b9050919050565b60006020820190508181036000830152612f6381612b33565b9050919050565b60006020820190508181036000830152612f8381612b56565b9050919050565b60006020820190508181036000830152612fa381612b79565b9050919050565b60006020820190508181036000830152612fc48184612b9c565b905092915050565b6000602082019050612fe16000830184612c0e565b92915050565b6000608082019050612ffc6000830187612c0e565b61300960208301866127e6565b818103604083015261301b8185612876565b905061302a6060830184612c0e565b95945050505050565b600061303d61304e565b905061304982826132b1565b919050565b6000604051905090565b600067ffffffffffffffff821115613073576130726133e9565b5b61307c82613418565b9050602081019050919050565b600067ffffffffffffffff8211156130a4576130a36133e9565b5b6130ad82613418565b9050602081019050919050565b600081519050919050565b600081519050919050565b600082825260208201905092915050565b600082825260208201905092915050565b600082825260208201905092915050565b600081905092915050565b600061311982613233565b915061312483613233565b9250827fffffffffffffffffffffffffffffffffffffffffffffffffffffffffffffffff038211156131595761315861335c565b5b828201905092915050565b600061316f82613233565b915061317a83613233565b92508261318a5761318961338b565b5b828204905092915050565b60006131a082613233565b91506131ab83613233565b9250828210156131be576131bd61335c565b5b828203905092915050565b60006131d482613213565b9050919050565b60008115159050919050565b60007fffffffff0000000000000000000000000000000000000000000000000000000082169050919050565b600073ffffffffffffffffffffffffffffffffffffffff82169050919050565b6000819050919050565b82818337600083830152505050565b60005b8381101561326a57808201518184015260208101905061324f565b83811115613279576000848401525b50505050565b6000600282049050600182168061329757607f821691505b602082108114156132ab576132aa6133ba565b5b50919050565b6132ba82613418565b810181811067ffffffffffffffff821117156132d9576132d86133e9565b5b80604052505050565b60006132ed82613233565b91507fffffffffffffffffffffffffffffffffffffffffffffffffffffffffffffffff8214156133205761331f61335c565b5b600182019050919050565b600061333682613233565b915061334183613233565b9250826133515761335061338b565b5b828206905092915050565b7f4e487b7100000000000000000000000000000000000000000000000000000000600052601160045260246000fd5b7f4e487b7100000000000000000000000000000000000000000000000000000000600052601260045260246000fd5b7f4e487b7100000000000000000000000000000000000000000000000000000000600052602260045260246000fd5b7f4e487b7100000000000000000000000000000000000000000000000000000000600052604160045260246000fd5b6000601f19601f8301169050919050565b7f4552433732313a207472616e7366657220746f206e6f6e20455243373231526560008201527f63656976657220696d706c656d656e7465720000000000000000000000000000602082015250565b7f4f776e61626c653a206e6577206f776e657220697320746865207a65726f206160008201527f6464726573730000000000000000000000000000000000000000000000000000602082015250565b7f4552433732313a20746f6b656e20616c7265616479206d696e74656400000000600082015250565b7f436f6c6c65637469626c65733a2063616c6c6572206d7573742062652077686960008201527f74656c6973746564000000000000000000000000000000000000000000000000602082015250565b7f4552433732313a207472616e7366657220746f20746865207a65726f2061646460008201527f7265737300000000000000000000000000000000000000000000000000000000602082015250565b7f4552433732313a20617070726f766520746f2063616c6c657200000000000000600082015250565b7f4552433732313a206f70657261746f7220717565727920666f72206e6f6e657860008201527f697374656e7420746f6b656e0000000000000000000000000000000000000000602082015250565b7f436f6c6c65637469626c65733a207175657279206e6f6e2d6578697374656e7460008201527f20746f6b656e0000000000000000000000000000000000000000000000000000602082015250565b7f4552433732313a20617070726f76652063616c6c6572206973206e6f74206f7760008201527f6e6572206e6f7220617070726f76656420666f7220616c6c0000000000000000602082015250565b7f4552433732313a2062616c616e636520717565727920666f7220746865207a6560008201527f726f206164647265737300000000000000000000000000000000000000000000602082015250565b7f4552433732313a206f776e657220717565727920666f72206e6f6e657869737460008201527f656e7420746f6b656e0000000000000000000000000000000000000000000000602082015250565b7f45524337323155524953746f726167653a2055524920736574206f66206e6f6e60008201527f6578697374656e7420746f6b656e000000000000000000000000000000000000602082015250565b7f4552433732313a206d696e7420746f20746865207a65726f2061646472657373600082015250565b7f45524337323155524953746f726167653a2055524920717565727920666f722060008201527f6e6f6e6578697374656e7420746f6b656e000000000000000000000000000000602082015250565b7f4552433732313a20617070726f76656420717565727920666f72206e6f6e657860008201527f697374656e7420746f6b656e0000000000000000000000000000000000000000602082015250565b7f4f776e61626c653a2063616c6c6572206973206e6f7420746865206f776e6572600082015250565b7f4552433732313a207472616e73666572206f6620746f6b656e2074686174206960008201527f73206e6f74206f776e0000000000000000000000000000000000000000000000602082015250565b7f4552433732314d657461646174613a2055524920717565727920666f72206e6f60008201527f6e6578697374656e7420746f6b656e0000000000000000000000000000000000602082015250565b7f4552433732313a20617070726f76616c20746f2063757272656e74206f776e6560008201527f7200000000000000000000000000000000000000000000000000000000000000602082015250565b7f4552433732313a207472616e736665722063616c6c6572206973206e6f74206f60008201527f776e6572206e6f7220617070726f766564000000000000000000000000000000602082015250565b6139c6816131c9565b81146139d157600080fd5b50565b6139dd816131db565b81146139e857600080fd5b50565b6139f4816131e7565b81146139ff57600080fd5b50565b613a0b81613233565b8114613a1657600080fd5b5056fea26469706673582212205cc4c1a2e9eef05dc9023cf968f9cef254f4f18bd05794f33da96b0d0eebf13164736f6c63430008040033",
  "linkReferences": {},
  "deployedLinkReferences": {}
}