{
  "_format": "hh-sol-artifact-1",
  "contractName": "Collectibles",
  "sourceName": "contracts/Collectibles.sol",
  "abi": [
    {
      "inputs": [],
      "stateMutability": "nonpayable",
      "type": "constructor"
    },
    {
      "anonymous": false,
      "inputs": [
        {
          "indexed": true,
          "internalType": "address",
          "name": "owner",
          "type": "address"
        },
        {
          "indexed": true,
          "internalType": "address",
          "name": "approved",
          "type": "address"
        },
        {
          "indexed": true,
          "internalType": "uint256",
          "name": "tokenId",
          "type": "uint256"
        }
      ],
      "name": "Approval",
      "type": "event"
    },
    {
      "anonymous": false,
      "inputs": [
        {
          "indexed": true,
          "internalType": "address",
          "name": "owner",
          "type": "address"
        },
        {
          "indexed": true,
          "internalType": "address",
          "name": "operator",
          "type": "address"
        },
        {
          "indexed": false,
          "internalType": "bool",
          "name": "approved",
          "type": "bool"
        }
      ],
      "name": "ApprovalForAll",
      "type": "event"
    },
    {
      "anonymous": false,
      "inputs": [
        {
          "indexed": true,
          "internalType": "uint256",
          "name": "tokenId",
          "type": "uint256"
        },
        {
          "indexed": true,
          "internalType": "address",
          "name": "owner",
          "type": "address"
        },
        {
          "indexed": false,
          "internalType": "string",
          "name": "name",
          "type": "string"
        },
        {
          "indexed": false,
          "internalType": "uint256",
          "name": "price",
          "type": "uint256"
        },
        {
          "indexed": false,
          "internalType": "string",
          "name": "tokenURI",
          "type": "string"
        }
      ],
      "name": "CollectibleCreated",
      "type": "event"
    },
    {
      "anonymous": false,
      "inputs": [
        {
          "indexed": true,
          "internalType": "address",
          "name": "previousOwner",
          "type": "address"
        },
        {
          "indexed": true,
          "internalType": "address",
          "name": "newOwner",
          "type": "address"
        }
      ],
      "name": "OwnershipTransferred",
      "type": "event"
    },
    {
      "anonymous": false,
      "inputs": [
        {
          "indexed": true,
          "internalType": "address",
          "name": "from",
          "type": "address"
        },
        {
          "indexed": true,
          "internalType": "address",
          "name": "to",
          "type": "address"
        },
        {
          "indexed": true,
          "internalType": "uint256",
          "name": "tokenId",
          "type": "uint256"
        }
      ],
      "name": "Transfer",
      "type": "event"
    },
    {
      "inputs": [
        {
          "internalType": "address",
          "name": "to",
          "type": "address"
        },
        {
          "internalType": "uint256",
          "name": "tokenId",
          "type": "uint256"
        }
      ],
      "name": "approve",
      "outputs": [],
      "stateMutability": "nonpayable",
      "type": "function"
    },
    {
      "inputs": [
        {
          "internalType": "address",
          "name": "owner",
          "type": "address"
        }
      ],
      "name": "balanceOf",
      "outputs": [
        {
          "internalType": "uint256",
          "name": "",
          "type": "uint256"
        }
      ],
      "stateMutability": "view",
      "type": "function"
    },
    {
      "inputs": [
        {
          "internalType": "uint256",
          "name": "",
          "type": "uint256"
        }
      ],
      "name": "collectibles",
      "outputs": [
        {
          "internalType": "address",
          "name": "owner",
          "type": "address"
        },
        {
          "internalType": "string",
          "name": "name",
          "type": "string"
        },
        {
          "internalType": "uint256",
          "name": "price",
          "type": "uint256"
        }
      ],
      "stateMutability": "view",
      "type": "function"
    },
    {
      "inputs": [
        {
          "internalType": "string",
          "name": "name",
          "type": "string"
        },
        {
          "internalType": "uint256",
          "name": "price",
          "type": "uint256"
        },
        {
          "internalType": "string",
          "name": "tokenURI",
          "type": "string"
        }
      ],
      "name": "createCollectible",
      "outputs": [],
      "stateMutability": "nonpayable",
      "type": "function"
    },
    {
      "inputs": [
        {
          "internalType": "uint256",
          "name": "tokenId",
          "type": "uint256"
        }
      ],
      "name": "getApproved",
      "outputs": [
        {
          "internalType": "address",
          "name": "",
          "type": "address"
        }
      ],
      "stateMutability": "view",
      "type": "function"
    },
    {
      "inputs": [
        {
          "internalType": "address",
          "name": "owner",
          "type": "address"
        },
        {
          "internalType": "address",
          "name": "operator",
          "type": "address"
        }
      ],
      "name": "isApprovedForAll",
      "outputs": [
        {
          "internalType": "bool",
          "name": "",
          "type": "bool"
        }
      ],
      "stateMutability": "view",
      "type": "function"
    },
    {
      "inputs": [],
      "name": "name",
      "outputs": [
        {
          "internalType": "string",
          "name": "",
          "type": "string"
        }
      ],
      "stateMutability": "view",
      "type": "function"
    },
    {
      "inputs": [],
      "name": "owner",
      "outputs": [
        {
          "internalType": "address",
          "name": "",
          "type": "address"
        }
      ],
      "stateMutability": "view",
      "type": "function"
    },
    {
      "inputs": [
        {
          "internalType": "uint256",
          "name": "tokenId",
          "type": "uint256"
        }
      ],
      "name": "ownerOf",
      "outputs": [
        {
          "internalType": "address",
          "name": "",
          "type": "address"
        }
      ],
      "stateMutability": "view",
      "type": "function"
    },
    {
      "inputs": [],
      "name": "renounceOwnership",
      "outputs": [],
      "stateMutability": "nonpayable",
      "type": "function"
    },
    {
      "inputs": [
        {
          "internalType": "address",
          "name": "from",
          "type": "address"
        },
        {
          "internalType": "address",
          "name": "to",
          "type": "address"
        },
        {
          "internalType": "uint256",
          "name": "tokenId",
          "type": "uint256"
        }
      ],
      "name": "safeTransferFrom",
      "outputs": [],
      "stateMutability": "nonpayable",
      "type": "function"
    },
    {
      "inputs": [
        {
          "internalType": "address",
          "name": "from",
          "type": "address"
        },
        {
          "internalType": "address",
          "name": "to",
          "type": "address"
        },
        {
          "internalType": "uint256",
          "name": "tokenId",
          "type": "uint256"
        },
        {
          "internalType": "bytes",
          "name": "_data",
          "type": "bytes"
        }
      ],
      "name": "safeTransferFrom",
      "outputs": [],
      "stateMutability": "nonpayable",
      "type": "function"
    },
    {
      "inputs": [
        {
          "internalType": "address",
          "name": "operator",
          "type": "address"
        },
        {
          "internalType": "bool",
          "name": "approved",
          "type": "bool"
        }
      ],
      "name": "setApprovalForAll",
      "outputs": [],
      "stateMutability": "nonpayable",
      "type": "function"
    },
    {
      "inputs": [
        {
          "internalType": "bytes4",
          "name": "interfaceId",
          "type": "bytes4"
        }
      ],
      "name": "supportsInterface",
      "outputs": [
        {
          "internalType": "bool",
          "name": "",
          "type": "bool"
        }
      ],
      "stateMutability": "view",
      "type": "function"
    },
    {
      "inputs": [],
      "name": "symbol",
      "outputs": [
        {
          "internalType": "string",
          "name": "",
          "type": "string"
        }
      ],
      "stateMutability": "view",
      "type": "function"
    },
    {
      "inputs": [
        {
          "internalType": "uint256",
          "name": "tokenId",
          "type": "uint256"
        }
      ],
      "name": "tokenURI",
      "outputs": [
        {
          "internalType": "string",
          "name": "",
          "type": "string"
        }
      ],
      "stateMutability": "view",
      "type": "function"
    },
    {
      "inputs": [],
      "name": "totalCollectibles",
      "outputs": [
        {
          "internalType": "uint256",
          "name": "",
          "type": "uint256"
        }
      ],
      "stateMutability": "view",
      "type": "function"
    },
    {
      "inputs": [
        {
          "internalType": "address",
          "name": "from",
          "type": "address"
        },
        {
          "internalType": "address",
          "name": "to",
          "type": "address"
        },
        {
          "internalType": "uint256",
          "name": "tokenId",
          "type": "uint256"
        }
      ],
      "name": "transferFrom",
      "outputs": [],
      "stateMutability": "nonpayable",
      "type": "function"
    },
    {
      "inputs": [
        {
          "internalType": "address",
          "name": "newOwner",
          "type": "address"
        }
      ],
      "name": "transferOwnership",
      "outputs": [],
      "stateMutability": "nonpayable",
      "type": "function"
    }
  ],
  "bytecode": "0x60806040523480156200001157600080fd5b506040518060400160405280600c81526020017f436f6c6c65637469626c657300000000000000000000000000000000000000008152506040518060400160405280600381526020017f434c420000000000000000000000000000000000000000000000000000000000815250816000908051906020019062000096929190620001a6565b508060019080519060200190620000af929190620001a6565b505050620000d2620000c6620000d860201b60201c565b620000e060201b60201c565b620002bb565b600033905090565b6000600760009054906101000a900473ffffffffffffffffffffffffffffffffffffffff16905081600760006101000a81548173ffffffffffffffffffffffffffffffffffffffff021916908373ffffffffffffffffffffffffffffffffffffffff1602179055508173ffffffffffffffffffffffffffffffffffffffff168173ffffffffffffffffffffffffffffffffffffffff167f8be0079c531659141344cd1fd0a4f28419497f9722a3daafe3b4186f6b6457e060405160405180910390a35050565b828054620001b49062000256565b90600052602060002090601f016020900481019282620001d8576000855562000224565b82601f10620001f357805160ff191683800117855562000224565b8280016001018555821562000224579182015b828111156200022357825182559160200191906001019062000206565b5b50905062000233919062000237565b5090565b5b808211156200025257600081600090555060010162000238565b5090565b600060028204905060018216806200026f57607f821691505b602082108114156200028657620002856200028c565b5b50919050565b7f4e487b7100000000000000000000000000000000000000000000000000000000600052602260045260246000fd5b61328a80620002cb6000396000f3fe608060405234801561001057600080fd5b50600436106101215760003560e01c806370a08231116100ad578063b88d4fde11610071578063b88d4fde14610308578063c87b56dd14610324578063e985e9c514610354578063ee46df2814610384578063f2fde38b146103a257610121565b806370a0823114610276578063715018a6146102a65780638da5cb5b146102b057806395d89b41146102ce578063a22cb465146102ec57610121565b80630a09859d116100f45780630a09859d146101c057806323b872dd146101f257806342842e0e1461020e578063510112641461022a5780636352211e1461024657610121565b806301ffc9a71461012657806306fdde0314610156578063081812fc14610174578063095ea7b3146101a4575b600080fd5b610140600480360381019061013b9190612137565b6103be565b60405161014d9190612640565b60405180910390f35b61015e6104a0565b60405161016b919061265b565b60405180910390f35b61018e60048036038101906101899190612208565b610532565b60405161019b919061259b565b60405180910390f35b6101be60048036038101906101b991906120fb565b6105b7565b005b6101da60048036038101906101d59190612208565b6106cf565b6040516101e993929190612602565b60405180910390f35b61020c60048036038101906102079190611ff5565b6107a1565b005b61022860048036038101906102239190611ff5565b610801565b005b610244600480360381019061023f9190612189565b610821565b005b610260600480360381019061025b9190612208565b610977565b60405161026d919061259b565b60405180910390f35b610290600480360381019061028b9190611f90565b610a29565b60405161029d9190612902565b60405180910390f35b6102ae610ae1565b005b6102b8610b69565b6040516102c5919061259b565b60405180910390f35b6102d6610b93565b6040516102e3919061265b565b60405180910390f35b610306600480360381019061030191906120bf565b610c25565b005b610322600480360381019061031d9190612044565b610da6565b005b61033e60048036038101906103399190612208565b610e08565b60405161034b919061265b565b60405180910390f35b61036e60048036038101906103699190611fb9565b610f5a565b60405161037b9190612640565b60405180910390f35b61038c610fee565b6040516103999190612902565b60405180910390f35b6103bc60048036038101906103b79190611f90565b610ff4565b005b60007f80ac58cd000000000000000000000000000000000000000000000000000000007bffffffffffffffffffffffffffffffffffffffffffffffffffffffff1916827bffffffffffffffffffffffffffffffffffffffffffffffffffffffff1916148061048957507f5b5e139f000000000000000000000000000000000000000000000000000000007bffffffffffffffffffffffffffffffffffffffffffffffffffffffff1916827bffffffffffffffffffffffffffffffffffffffffffffffffffffffff1916145b806104995750610498826110ec565b5b9050919050565b6060600080546104af90612b58565b80601f01602080910402602001604051908101604052809291908181526020018280546104db90612b58565b80156105285780601f106104fd57610100808354040283529160200191610528565b820191906000526020600020905b81548152906001019060200180831161050b57829003601f168201915b5050505050905090565b600061053d82611156565b61057c576040517f08c379a000000000000000000000000000000000000000000000000000000000815260040161057390612842565b60405180910390fd5b6004600083815260200190815260200160002060009054906101000a900473ffffffffffffffffffffffffffffffffffffffff169050919050565b60006105c282610977565b90508073ffffffffffffffffffffffffffffffffffffffff168373ffffffffffffffffffffffffffffffffffffffff161415610633576040517f08c379a000000000000000000000000000000000000000000000000000000000815260040161062a906128c2565b60405180910390fd5b8073ffffffffffffffffffffffffffffffffffffffff166106526111c2565b73ffffffffffffffffffffffffffffffffffffffff16148061068157506106808161067b6111c2565b610f5a565b5b6106c0576040517f08c379a00000000000000000000000000000000000000000000000000000000081526004016106b790612782565b60405180910390fd5b6106ca83836111ca565b505050565b60086020528060005260406000206000915090508060000160009054906101000a900473ffffffffffffffffffffffffffffffffffffffff169080600101805461071890612b58565b80601f016020809104026020016040519081016040528092919081815260200182805461074490612b58565b80156107915780601f1061076657610100808354040283529160200191610791565b820191906000526020600020905b81548152906001019060200180831161077457829003601f168201915b5050505050908060020154905083565b6107b26107ac6111c2565b82611283565b6107f1576040517f08c379a00000000000000000000000000000000000000000000000000000000081526004016107e8906128e2565b60405180910390fd5b6107fc838383611361565b505050565b61081c83838360405180602001604052806000815250610da6565b505050565b6009600081548092919061083490612bbb565b91905055506000600954905060405180606001604052806108536111c2565b73ffffffffffffffffffffffffffffffffffffffff168152602001858152602001848152506008600083815260200190815260200160002060008201518160000160006101000a81548173ffffffffffffffffffffffffffffffffffffffff021916908373ffffffffffffffffffffffffffffffffffffffff16021790555060208201518160010190805190602001906108ee929190611db4565b506040820151816002015590505061090d6109076111c2565b826115bd565b61091781836115db565b61091f6111c2565b73ffffffffffffffffffffffffffffffffffffffff16817fe93e9cc6f489705e9b9d245497ca22b8772dc319fb15e531949c6c9b5533efa68686866040516109699392919061267d565b60405180910390a350505050565b6000806002600084815260200190815260200160002060009054906101000a900473ffffffffffffffffffffffffffffffffffffffff169050600073ffffffffffffffffffffffffffffffffffffffff168173ffffffffffffffffffffffffffffffffffffffff161415610a20576040517f08c379a0000000000000000000000000000000000000000000000000000000008152600401610a17906127c2565b60405180910390fd5b80915050919050565b60008073ffffffffffffffffffffffffffffffffffffffff168273ffffffffffffffffffffffffffffffffffffffff161415610a9a576040517f08c379a0000000000000000000000000000000000000000000000000000000008152600401610a91906127a2565b60405180910390fd5b600360008373ffffffffffffffffffffffffffffffffffffffff1673ffffffffffffffffffffffffffffffffffffffff168152602001908152602001600020549050919050565b610ae96111c2565b73ffffffffffffffffffffffffffffffffffffffff16610b07610b69565b73ffffffffffffffffffffffffffffffffffffffff1614610b5d576040517f08c379a0000000000000000000000000000000000000000000000000000000008152600401610b5490612862565b60405180910390fd5b610b67600061164f565b565b6000600760009054906101000a900473ffffffffffffffffffffffffffffffffffffffff16905090565b606060018054610ba290612b58565b80601f0160208091040260200160405190810160405280929190818152602001828054610bce90612b58565b8015610c1b5780601f10610bf057610100808354040283529160200191610c1b565b820191906000526020600020905b815481529060010190602001808311610bfe57829003601f168201915b5050505050905090565b610c2d6111c2565b73ffffffffffffffffffffffffffffffffffffffff168273ffffffffffffffffffffffffffffffffffffffff161415610c9b576040517f08c379a0000000000000000000000000000000000000000000000000000000008152600401610c9290612742565b60405180910390fd5b8060056000610ca86111c2565b73ffffffffffffffffffffffffffffffffffffffff1673ffffffffffffffffffffffffffffffffffffffff16815260200190815260200160002060008473ffffffffffffffffffffffffffffffffffffffff1673ffffffffffffffffffffffffffffffffffffffff16815260200190815260200160002060006101000a81548160ff0219169083151502179055508173ffffffffffffffffffffffffffffffffffffffff16610d556111c2565b73ffffffffffffffffffffffffffffffffffffffff167f17307eab39ab6107e8899845ad3d59bd9653f200f220920489ca2b5937696c3183604051610d9a9190612640565b60405180910390a35050565b610db7610db16111c2565b83611283565b610df6576040517f08c379a0000000000000000000000000000000000000000000000000000000008152600401610ded906128e2565b60405180910390fd5b610e0284848484611715565b50505050565b6060610e1382611156565b610e52576040517f08c379a0000000000000000000000000000000000000000000000000000000008152600401610e4990612822565b60405180910390fd5b6000600660008481526020019081526020016000208054610e7290612b58565b80601f0160208091040260200160405190810160405280929190818152602001828054610e9e90612b58565b8015610eeb5780601f10610ec057610100808354040283529160200191610eeb565b820191906000526020600020905b815481529060010190602001808311610ece57829003601f168201915b505050505090506000610efc611771565b9050600081511415610f12578192505050610f55565b600082511115610f47578082604051602001610f2f929190612577565b60405160208183030381529060405292505050610f55565b610f5084611788565b925050505b919050565b6000600560008473ffffffffffffffffffffffffffffffffffffffff1673ffffffffffffffffffffffffffffffffffffffff16815260200190815260200160002060008373ffffffffffffffffffffffffffffffffffffffff1673ffffffffffffffffffffffffffffffffffffffff16815260200190815260200160002060009054906101000a900460ff16905092915050565b60095481565b610ffc6111c2565b73ffffffffffffffffffffffffffffffffffffffff1661101a610b69565b73ffffffffffffffffffffffffffffffffffffffff1614611070576040517f08c379a000000000000000000000000000000000000000000000000000000000815260040161106790612862565b60405180910390fd5b600073ffffffffffffffffffffffffffffffffffffffff168173ffffffffffffffffffffffffffffffffffffffff1614156110e0576040517f08c379a00000000000000000000000000000000000000000000000000000000081526004016110d7906126e2565b60405180910390fd5b6110e98161164f565b50565b60007f01ffc9a7000000000000000000000000000000000000000000000000000000007bffffffffffffffffffffffffffffffffffffffffffffffffffffffff1916827bffffffffffffffffffffffffffffffffffffffffffffffffffffffff1916149050919050565b60008073ffffffffffffffffffffffffffffffffffffffff166002600084815260200190815260200160002060009054906101000a900473ffffffffffffffffffffffffffffffffffffffff1673ffffffffffffffffffffffffffffffffffffffff1614159050919050565b600033905090565b816004600083815260200190815260200160002060006101000a81548173ffffffffffffffffffffffffffffffffffffffff021916908373ffffffffffffffffffffffffffffffffffffffff160217905550808273ffffffffffffffffffffffffffffffffffffffff1661123d83610977565b73ffffffffffffffffffffffffffffffffffffffff167f8c5be1e5ebec7d5bd14f71427d1e84f3dd0314c0f7b2291e5b200ac8c7c3b92560405160405180910390a45050565b600061128e82611156565b6112cd576040517f08c379a00000000000000000000000000000000000000000000000000000000081526004016112c490612762565b60405180910390fd5b60006112d883610977565b90508073ffffffffffffffffffffffffffffffffffffffff168473ffffffffffffffffffffffffffffffffffffffff16148061134757508373ffffffffffffffffffffffffffffffffffffffff1661132f84610532565b73ffffffffffffffffffffffffffffffffffffffff16145b8061135857506113578185610f5a565b5b91505092915050565b8273ffffffffffffffffffffffffffffffffffffffff1661138182610977565b73ffffffffffffffffffffffffffffffffffffffff16146113d7576040517f08c379a00000000000000000000000000000000000000000000000000000000081526004016113ce90612882565b60405180910390fd5b600073ffffffffffffffffffffffffffffffffffffffff168273ffffffffffffffffffffffffffffffffffffffff161415611447576040517f08c379a000000000000000000000000000000000000000000000000000000000815260040161143e90612722565b60405180910390fd5b61145283838361182f565b61145d6000826111ca565b6001600360008573ffffffffffffffffffffffffffffffffffffffff1673ffffffffffffffffffffffffffffffffffffffff16815260200190815260200160002060008282546114ad9190612a6e565b925050819055506001600360008473ffffffffffffffffffffffffffffffffffffffff1673ffffffffffffffffffffffffffffffffffffffff168152602001908152602001600020600082825461150491906129e7565b92505081905550816002600083815260200190815260200160002060006101000a81548173ffffffffffffffffffffffffffffffffffffffff021916908373ffffffffffffffffffffffffffffffffffffffff160217905550808273ffffffffffffffffffffffffffffffffffffffff168473ffffffffffffffffffffffffffffffffffffffff167fddf252ad1be2c89b69c2b068fc378daa952ba7f163c4a11628f55a4df523b3ef60405160405180910390a4505050565b6115d7828260405180602001604052806000815250611834565b5050565b6115e482611156565b611623576040517f08c379a000000000000000000000000000000000000000000000000000000000815260040161161a906127e2565b60405180910390fd5b8060066000848152602001908152602001600020908051906020019061164a929190611db4565b505050565b6000600760009054906101000a900473ffffffffffffffffffffffffffffffffffffffff16905081600760006101000a81548173ffffffffffffffffffffffffffffffffffffffff021916908373ffffffffffffffffffffffffffffffffffffffff1602179055508173ffffffffffffffffffffffffffffffffffffffff168173ffffffffffffffffffffffffffffffffffffffff167f8be0079c531659141344cd1fd0a4f28419497f9722a3daafe3b4186f6b6457e060405160405180910390a35050565b611720848484611361565b61172c8484848461188f565b61176b576040517f08c379a0000000000000000000000000000000000000000000000000000000008152600401611762906126c2565b60405180910390fd5b50505050565b606060405180602001604052806000815250905090565b606061179382611156565b6117d2576040517f08c379a00000000000000000000000000000000000000000000000000000000081526004016117c9906128a2565b60405180910390fd5b60006117dc611771565b905060008151116117fc5760405180602001604052806000815250611827565b8061180684611a26565b604051602001611817929190612577565b6040516020818303038152906040525b915050919050565b505050565b61183e8383611bd3565b61184b600084848461188f565b61188a576040517f08c379a0000000000000000000000000000000000000000000000000000000008152600401611881906126c2565b60405180910390fd5b505050565b60006118b08473ffffffffffffffffffffffffffffffffffffffff16611da1565b15611a19578373ffffffffffffffffffffffffffffffffffffffff1663150b7a026118d96111c2565b8786866040518563ffffffff1660e01b81526004016118fb94939291906125b6565b602060405180830381600087803b15801561191557600080fd5b505af192505050801561194657506040513d601f19601f820116820180604052508101906119439190612160565b60015b6119c9573d8060008114611976576040519150601f19603f3d011682016040523d82523d6000602084013e61197b565b606091505b506000815114156119c1576040517f08c379a00000000000000000000000000000000000000000000000000000000081526004016119b8906126c2565b60405180910390fd5b805181602001fd5b63150b7a0260e01b7bffffffffffffffffffffffffffffffffffffffffffffffffffffffff1916817bffffffffffffffffffffffffffffffffffffffffffffffffffffffff191614915050611a1e565b600190505b949350505050565b60606000821415611a6e576040518060400160405280600181526020017f30000000000000000000000000000000000000000000000000000000000000008152509050611bce565b600082905060005b60008214611aa0578080611a8990612bbb565b915050600a82611a999190612a3d565b9150611a76565b60008167ffffffffffffffff811115611ae2577f4e487b7100000000000000000000000000000000000000000000000000000000600052604160045260246000fd5b6040519080825280601f01601f191660200182016040528015611b145781602001600182028036833780820191505090505b5090505b60008514611bc757600182611b2d9190612a6e565b9150600a85611b3c9190612c04565b6030611b4891906129e7565b60f81b818381518110611b84577f4e487b7100000000000000000000000000000000000000000000000000000000600052603260045260246000fd5b60200101907effffffffffffffffffffffffffffffffffffffffffffffffffffffffffffff1916908160001a905350600a85611bc09190612a3d565b9450611b18565b8093505050505b919050565b600073ffffffffffffffffffffffffffffffffffffffff168273ffffffffffffffffffffffffffffffffffffffff161415611c43576040517f08c379a0000000000000000000000000000000000000000000000000000000008152600401611c3a90612802565b60405180910390fd5b611c4c81611156565b15611c8c576040517f08c379a0000000000000000000000000000000000000000000000000000000008152600401611c8390612702565b60405180910390fd5b611c986000838361182f565b6001600360008473ffffffffffffffffffffffffffffffffffffffff1673ffffffffffffffffffffffffffffffffffffffff1681526020019081526020016000206000828254611ce891906129e7565b92505081905550816002600083815260200190815260200160002060006101000a81548173ffffffffffffffffffffffffffffffffffffffff021916908373ffffffffffffffffffffffffffffffffffffffff160217905550808273ffffffffffffffffffffffffffffffffffffffff16600073ffffffffffffffffffffffffffffffffffffffff167fddf252ad1be2c89b69c2b068fc378daa952ba7f163c4a11628f55a4df523b3ef60405160405180910390a45050565b600080823b905060008111915050919050565b828054611dc090612b58565b90600052602060002090601f016020900481019282611de25760008555611e29565b82601f10611dfb57805160ff1916838001178555611e29565b82800160010185558215611e29579182015b82811115611e28578251825591602001919060010190611e0d565b5b509050611e369190611e3a565b5090565b5b80821115611e53576000816000905550600101611e3b565b5090565b6000611e6a611e6584612942565b61291d565b905082815260208101848484011115611e8257600080fd5b611e8d848285612b16565b509392505050565b6000611ea8611ea384612973565b61291d565b905082815260208101848484011115611ec057600080fd5b611ecb848285612b16565b509392505050565b600081359050611ee2816131f8565b92915050565b600081359050611ef78161320f565b92915050565b600081359050611f0c81613226565b92915050565b600081519050611f2181613226565b92915050565b600082601f830112611f3857600080fd5b8135611f48848260208601611e57565b91505092915050565b600082601f830112611f6257600080fd5b8135611f72848260208601611e95565b91505092915050565b600081359050611f8a8161323d565b92915050565b600060208284031215611fa257600080fd5b6000611fb084828501611ed3565b91505092915050565b60008060408385031215611fcc57600080fd5b6000611fda85828601611ed3565b9250506020611feb85828601611ed3565b9150509250929050565b60008060006060848603121561200a57600080fd5b600061201886828701611ed3565b935050602061202986828701611ed3565b925050604061203a86828701611f7b565b9150509250925092565b6000806000806080858703121561205a57600080fd5b600061206887828801611ed3565b945050602061207987828801611ed3565b935050604061208a87828801611f7b565b925050606085013567ffffffffffffffff8111156120a757600080fd5b6120b387828801611f27565b91505092959194509250565b600080604083850312156120d257600080fd5b60006120e085828601611ed3565b92505060206120f185828601611ee8565b9150509250929050565b6000806040838503121561210e57600080fd5b600061211c85828601611ed3565b925050602061212d85828601611f7b565b9150509250929050565b60006020828403121561214957600080fd5b600061215784828501611efd565b91505092915050565b60006020828403121561217257600080fd5b600061218084828501611f12565b91505092915050565b60008060006060848603121561219e57600080fd5b600084013567ffffffffffffffff8111156121b857600080fd5b6121c486828701611f51565b93505060206121d586828701611f7b565b925050604084013567ffffffffffffffff8111156121f257600080fd5b6121fe86828701611f51565b9150509250925092565b60006020828403121561221a57600080fd5b600061222884828501611f7b565b91505092915050565b61223a81612aa2565b82525050565b61224981612ab4565b82525050565b600061225a826129a4565b61226481856129ba565b9350612274818560208601612b25565b61227d81612cf1565b840191505092915050565b6000612293826129af565b61229d81856129cb565b93506122ad818560208601612b25565b6122b681612cf1565b840191505092915050565b60006122cc826129af565b6122d681856129dc565b93506122e6818560208601612b25565b80840191505092915050565b60006122ff6032836129cb565b915061230a82612d02565b604082019050919050565b60006123226026836129cb565b915061232d82612d51565b604082019050919050565b6000612345601c836129cb565b915061235082612da0565b602082019050919050565b60006123686024836129cb565b915061237382612dc9565b604082019050919050565b600061238b6019836129cb565b915061239682612e18565b602082019050919050565b60006123ae602c836129cb565b91506123b982612e41565b604082019050919050565b60006123d16038836129cb565b91506123dc82612e90565b604082019050919050565b60006123f4602a836129cb565b91506123ff82612edf565b604082019050919050565b60006124176029836129cb565b915061242282612f2e565b604082019050919050565b600061243a602e836129cb565b915061244582612f7d565b604082019050919050565b600061245d6020836129cb565b915061246882612fcc565b602082019050919050565b60006124806031836129cb565b915061248b82612ff5565b604082019050919050565b60006124a3602c836129cb565b91506124ae82613044565b604082019050919050565b60006124c66020836129cb565b91506124d182613093565b602082019050919050565b60006124e96029836129cb565b91506124f4826130bc565b604082019050919050565b600061250c602f836129cb565b91506125178261310b565b604082019050919050565b600061252f6021836129cb565b915061253a8261315a565b604082019050919050565b60006125526031836129cb565b915061255d826131a9565b604082019050919050565b61257181612b0c565b82525050565b600061258382856122c1565b915061258f82846122c1565b91508190509392505050565b60006020820190506125b06000830184612231565b92915050565b60006080820190506125cb6000830187612231565b6125d86020830186612231565b6125e56040830185612568565b81810360608301526125f7818461224f565b905095945050505050565b60006060820190506126176000830186612231565b81810360208301526126298185612288565b90506126386040830184612568565b949350505050565b60006020820190506126556000830184612240565b92915050565b600060208201905081810360008301526126758184612288565b905092915050565b600060608201905081810360008301526126978186612288565b90506126a66020830185612568565b81810360408301526126b88184612288565b9050949350505050565b600060208201905081810360008301526126db816122f2565b9050919050565b600060208201905081810360008301526126fb81612315565b9050919050565b6000602082019050818103600083015261271b81612338565b9050919050565b6000602082019050818103600083015261273b8161235b565b9050919050565b6000602082019050818103600083015261275b8161237e565b9050919050565b6000602082019050818103600083015261277b816123a1565b9050919050565b6000602082019050818103600083015261279b816123c4565b9050919050565b600060208201905081810360008301526127bb816123e7565b9050919050565b600060208201905081810360008301526127db8161240a565b9050919050565b600060208201905081810360008301526127fb8161242d565b9050919050565b6000602082019050818103600083015261281b81612450565b9050919050565b6000602082019050818103600083015261283b81612473565b9050919050565b6000602082019050818103600083015261285b81612496565b9050919050565b6000602082019050818103600083015261287b816124b9565b9050919050565b6000602082019050818103600083015261289b816124dc565b9050919050565b600060208201905081810360008301526128bb816124ff565b9050919050565b600060208201905081810360008301526128db81612522565b9050919050565b600060208201905081810360008301526128fb81612545565b9050919050565b60006020820190506129176000830184612568565b92915050565b6000612927612938565b90506129338282612b8a565b919050565b6000604051905090565b600067ffffffffffffffff82111561295d5761295c612cc2565b5b61296682612cf1565b9050602081019050919050565b600067ffffffffffffffff82111561298e5761298d612cc2565b5b61299782612cf1565b9050602081019050919050565b600081519050919050565b600081519050919050565b600082825260208201905092915050565b600082825260208201905092915050565b600081905092915050565b60006129f282612b0c565b91506129fd83612b0c565b9250827fffffffffffffffffffffffffffffffffffffffffffffffffffffffffffffffff03821115612a3257612a31612c35565b5b828201905092915050565b6000612a4882612b0c565b9150612a5383612b0c565b925082612a6357612a62612c64565b5b828204905092915050565b6000612a7982612b0c565b9150612a8483612b0c565b925082821015612a9757612a96612c35565b5b828203905092915050565b6000612aad82612aec565b9050919050565b60008115159050919050565b60007fffffffff0000000000000000000000000000000000000000000000000000000082169050919050565b600073ffffffffffffffffffffffffffffffffffffffff82169050919050565b6000819050919050565b82818337600083830152505050565b60005b83811015612b43578082015181840152602081019050612b28565b83811115612b52576000848401525b50505050565b60006002820490506001821680612b7057607f821691505b60208210811415612b8457612b83612c93565b5b50919050565b612b9382612cf1565b810181811067ffffffffffffffff82111715612bb257612bb1612cc2565b5b80604052505050565b6000612bc682612b0c565b91507fffffffffffffffffffffffffffffffffffffffffffffffffffffffffffffffff821415612bf957612bf8612c35565b5b600182019050919050565b6000612c0f82612b0c565b9150612c1a83612b0c565b925082612c2a57612c29612c64565b5b828206905092915050565b7f4e487b7100000000000000000000000000000000000000000000000000000000600052601160045260246000fd5b7f4e487b7100000000000000000000000000000000000000000000000000000000600052601260045260246000fd5b7f4e487b7100000000000000000000000000000000000000000000000000000000600052602260045260246000fd5b7f4e487b7100000000000000000000000000000000000000000000000000000000600052604160045260246000fd5b6000601f19601f8301169050919050565b7f4552433732313a207472616e7366657220746f206e6f6e20455243373231526560008201527f63656976657220696d706c656d656e7465720000000000000000000000000000602082015250565b7f4f776e61626c653a206e6577206f776e657220697320746865207a65726f206160008201527f6464726573730000000000000000000000000000000000000000000000000000602082015250565b7f4552433732313a20746f6b656e20616c7265616479206d696e74656400000000600082015250565b7f4552433732313a207472616e7366657220746f20746865207a65726f2061646460008201527f7265737300000000000000000000000000000000000000000000000000000000602082015250565b7f4552433732313a20617070726f766520746f2063616c6c657200000000000000600082015250565b7f4552433732313a206f70657261746f7220717565727920666f72206e6f6e657860008201527f697374656e7420746f6b656e0000000000000000000000000000000000000000602082015250565b7f4552433732313a20617070726f76652063616c6c6572206973206e6f74206f7760008201527f6e6572206e6f7220617070726f76656420666f7220616c6c0000000000000000602082015250565b7f4552433732313a2062616c616e636520717565727920666f7220746865207a6560008201527f726f206164647265737300000000000000000000000000000000000000000000602082015250565b7f4552433732313a206f776e657220717565727920666f72206e6f6e657869737460008201527f656e7420746f6b656e0000000000000000000000000000000000000000000000602082015250565b7f45524337323155524953746f726167653a2055524920736574206f66206e6f6e60008201527f6578697374656e7420746f6b656e000000000000000000000000000000000000602082015250565b7f4552433732313a206d696e7420746f20746865207a65726f2061646472657373600082015250565b7f45524337323155524953746f726167653a2055524920717565727920666f722060008201527f6e6f6e6578697374656e7420746f6b656e000000000000000000000000000000602082015250565b7f4552433732313a20617070726f76656420717565727920666f72206e6f6e657860008201527f697374656e7420746f6b656e0000000000000000000000000000000000000000602082015250565b7f4f776e61626c653a2063616c6c6572206973206e6f7420746865206f776e6572600082015250565b7f4552433732313a207472616e73666572206f6620746f6b656e2074686174206960008201527f73206e6f74206f776e0000000000000000000000000000000000000000000000602082015250565b7f4552433732314d657461646174613a2055524920717565727920666f72206e6f60008201527f6e6578697374656e7420746f6b656e0000000000000000000000000000000000602082015250565b7f4552433732313a20617070726f76616c20746f2063757272656e74206f776e6560008201527f7200000000000000000000000000000000000000000000000000000000000000602082015250565b7f4552433732313a207472616e736665722063616c6c6572206973206e6f74206f60008201527f776e6572206e6f7220617070726f766564000000000000000000000000000000602082015250565b61320181612aa2565b811461320c57600080fd5b50565b61321881612ab4565b811461322357600080fd5b50565b61322f81612ac0565b811461323a57600080fd5b50565b61324681612b0c565b811461325157600080fd5b5056fea2646970667358221220f073add8925064962bc5235561dfad3cc8928730dad8071c7759432c2ad8c8fe64736f6c63430008040033",
  "linkReferences": {},
  "deployedLinkReferences": {}
}