{
  "_format": "hh-sol-artifact-1",
  "contractName": "Lunary",
  "sourceName": "contracts/Lunary.sol",
  "abi": [
    {
      "inputs": [
        {
          "internalType": "contract Luna",
          "name": "luna",
          "type": "address"
        },
        {
          "internalType": "contract Collectibles",
          "name": "collectibles",
          "type": "address"
        }
      ],
      "stateMutability": "nonpayable",
      "type": "constructor"
    },
    {
      "anonymous": false,
      "inputs": [
        {
          "indexed": true,
          "internalType": "address",
          "name": "seller",
          "type": "address"
        },
        {
          "indexed": true,
          "internalType": "address",
          "name": "buyer",
          "type": "address"
        },
        {
          "indexed": false,
          "internalType": "uint256",
          "name": "price",
          "type": "uint256"
        }
      ],
      "name": "CollectibleBought",
      "type": "event"
    },
    {
      "anonymous": false,
      "inputs": [
        {
          "indexed": true,
          "internalType": "address",
          "name": "previousOwner",
          "type": "address"
        },
        {
          "indexed": true,
          "internalType": "address",
          "name": "newOwner",
          "type": "address"
        }
      ],
      "name": "OwnershipTransferred",
      "type": "event"
    },
    {
      "inputs": [
        {
          "internalType": "uint256",
          "name": "tokenId",
          "type": "uint256"
        }
      ],
      "name": "buyCollectible",
      "outputs": [],
      "stateMutability": "nonpayable",
      "type": "function"
    },
    {
      "inputs": [],
      "name": "owner",
      "outputs": [
        {
          "internalType": "address",
          "name": "",
          "type": "address"
        }
      ],
      "stateMutability": "view",
      "type": "function"
    },
    {
      "inputs": [],
      "name": "renounceOwnership",
      "outputs": [],
      "stateMutability": "nonpayable",
      "type": "function"
    },
    {
      "inputs": [
        {
          "internalType": "address",
          "name": "newOwner",
          "type": "address"
        }
      ],
      "name": "transferOwnership",
      "outputs": [],
      "stateMutability": "nonpayable",
      "type": "function"
    }
  ],
  "bytecode": "0x60806040523480156200001157600080fd5b5060405162000ef538038062000ef58339818101604052810190620000379190620001db565b620000576200004b620000e160201b60201c565b620000e960201b60201c565b81600160006101000a81548173ffffffffffffffffffffffffffffffffffffffff021916908373ffffffffffffffffffffffffffffffffffffffff16021790555080600260006101000a81548173ffffffffffffffffffffffffffffffffffffffff021916908373ffffffffffffffffffffffffffffffffffffffff1602179055505050620002ac565b600033905090565b60008060009054906101000a900473ffffffffffffffffffffffffffffffffffffffff169050816000806101000a81548173ffffffffffffffffffffffffffffffffffffffff021916908373ffffffffffffffffffffffffffffffffffffffff1602179055508173ffffffffffffffffffffffffffffffffffffffff168173ffffffffffffffffffffffffffffffffffffffff167f8be0079c531659141344cd1fd0a4f28419497f9722a3daafe3b4186f6b6457e060405160405180910390a35050565b600081519050620001be8162000278565b92915050565b600081519050620001d58162000292565b92915050565b60008060408385031215620001ef57600080fd5b6000620001ff85828601620001c4565b92505060206200021285828601620001ad565b9150509250929050565b6000620002298262000258565b9050919050565b60006200023d826200021c565b9050919050565b600062000251826200021c565b9050919050565b600073ffffffffffffffffffffffffffffffffffffffff82169050919050565b620002838162000230565b81146200028f57600080fd5b50565b6200029d8162000244565b8114620002a957600080fd5b50565b610c3980620002bc6000396000f3fe608060405234801561001057600080fd5b506004361061004c5760003560e01c8063715018a6146100515780638da5cb5b1461005b578063b04c8e8714610079578063f2fde38b14610095575b600080fd5b6100596100b1565b005b610063610139565b60405161007091906108fd565b60405180910390f35b610093600480360381019061008e9190610824565b610162565b005b6100af60048036038101906100aa919061076b565b6104d6565b005b6100b96105ce565b73ffffffffffffffffffffffffffffffffffffffff166100d7610139565b73ffffffffffffffffffffffffffffffffffffffff161461012d576040517f08c379a00000000000000000000000000000000000000000000000000000000081526004016101249061096f565b60405180910390fd5b61013760006105d6565b565b60008060009054906101000a900473ffffffffffffffffffffffffffffffffffffffff16905090565b6000600160009054906101000a900473ffffffffffffffffffffffffffffffffffffffff1673ffffffffffffffffffffffffffffffffffffffff166370a082316101aa6105ce565b6040518263ffffffff1660e01b81526004016101c691906108fd565b60206040518083038186803b1580156101de57600080fd5b505afa1580156101f2573d6000803e3d6000fd5b505050506040513d601f19601f82011682018060405250810190610216919061084d565b9050600080600260009054906101000a900473ffffffffffffffffffffffffffffffffffffffff1673ffffffffffffffffffffffffffffffffffffffff16630a09859d856040518263ffffffff1660e01b815260040161027691906109af565b60006040518083038186803b15801561028e57600080fd5b505afa1580156102a2573d6000803e3d6000fd5b505050506040513d6000823e3d601f19601f820116820180604052508101906102cb9190610794565b925050915080831015610313576040517f08c379a000000000000000000000000000000000000000000000000000000000815260040161030a9061098f565b60405180910390fd5b600160009054906101000a900473ffffffffffffffffffffffffffffffffffffffff1673ffffffffffffffffffffffffffffffffffffffff166323b872dd6103596105ce565b84846040518463ffffffff1660e01b815260040161037993929190610918565b602060405180830381600087803b15801561039357600080fd5b505af11580156103a7573d6000803e3d6000fd5b505050506040513d601f19601f820116820180604052508101906103cb91906107fb565b50600260009054906101000a900473ffffffffffffffffffffffffffffffffffffffff1673ffffffffffffffffffffffffffffffffffffffff166342842e0e836104136105ce565b876040518463ffffffff1660e01b815260040161043293929190610918565b600060405180830381600087803b15801561044c57600080fd5b505af1158015610460573d6000803e3d6000fd5b5050505061046c6105ce565b73ffffffffffffffffffffffffffffffffffffffff168273ffffffffffffffffffffffffffffffffffffffff167fcb1f88e80175dcace691434ba7391578cbce0acb9507f15a9b83b43add96cd2e836040516104c891906109af565b60405180910390a350505050565b6104de6105ce565b73ffffffffffffffffffffffffffffffffffffffff166104fc610139565b73ffffffffffffffffffffffffffffffffffffffff1614610552576040517f08c379a00000000000000000000000000000000000000000000000000000000081526004016105499061096f565b60405180910390fd5b600073ffffffffffffffffffffffffffffffffffffffff168173ffffffffffffffffffffffffffffffffffffffff1614156105c2576040517f08c379a00000000000000000000000000000000000000000000000000000000081526004016105b99061094f565b60405180910390fd5b6105cb816105d6565b50565b600033905090565b60008060009054906101000a900473ffffffffffffffffffffffffffffffffffffffff169050816000806101000a81548173ffffffffffffffffffffffffffffffffffffffff021916908373ffffffffffffffffffffffffffffffffffffffff1602179055508173ffffffffffffffffffffffffffffffffffffffff168173ffffffffffffffffffffffffffffffffffffffff167f8be0079c531659141344cd1fd0a4f28419497f9722a3daafe3b4186f6b6457e060405160405180910390a35050565b60006106ad6106a8846109ef565b6109ca565b9050828152602081018484840111156106c557600080fd5b6106d0848285610a79565b509392505050565b6000813590506106e781610bbe565b92915050565b6000815190506106fc81610bbe565b92915050565b60008151905061071181610bd5565b92915050565b600082601f83011261072857600080fd5b815161073884826020860161069a565b91505092915050565b60008135905061075081610bec565b92915050565b60008151905061076581610bec565b92915050565b60006020828403121561077d57600080fd5b600061078b848285016106d8565b91505092915050565b6000806000606084860312156107a957600080fd5b60006107b7868287016106ed565b935050602084015167ffffffffffffffff8111156107d457600080fd5b6107e086828701610717565b92505060406107f186828701610756565b9150509250925092565b60006020828403121561080d57600080fd5b600061081b84828501610702565b91505092915050565b60006020828403121561083657600080fd5b600061084484828501610741565b91505092915050565b60006020828403121561085f57600080fd5b600061086d84828501610756565b91505092915050565b61087f81610a31565b82525050565b6000610892602683610a20565b915061089d82610b1d565b604082019050919050565b60006108b5602083610a20565b91506108c082610b6c565b602082019050919050565b60006108d8601c83610a20565b91506108e382610b95565b602082019050919050565b6108f781610a6f565b82525050565b60006020820190506109126000830184610876565b92915050565b600060608201905061092d6000830186610876565b61093a6020830185610876565b61094760408301846108ee565b949350505050565b6000602082019050818103600083015261096881610885565b9050919050565b60006020820190508181036000830152610988816108a8565b9050919050565b600060208201905081810360008301526109a8816108cb565b9050919050565b60006020820190506109c460008301846108ee565b92915050565b60006109d46109e5565b90506109e08282610aac565b919050565b6000604051905090565b600067ffffffffffffffff821115610a0a57610a09610add565b5b610a1382610b0c565b9050602081019050919050565b600082825260208201905092915050565b6000610a3c82610a4f565b9050919050565b60008115159050919050565b600073ffffffffffffffffffffffffffffffffffffffff82169050919050565b6000819050919050565b60005b83811015610a97578082015181840152602081019050610a7c565b83811115610aa6576000848401525b50505050565b610ab582610b0c565b810181811067ffffffffffffffff82111715610ad457610ad3610add565b5b80604052505050565b7f4e487b7100000000000000000000000000000000000000000000000000000000600052604160045260246000fd5b6000601f19601f8301169050919050565b7f4f776e61626c653a206e6577206f776e657220697320746865207a65726f206160008201527f6464726573730000000000000000000000000000000000000000000000000000602082015250565b7f4f776e61626c653a2063616c6c6572206973206e6f7420746865206f776e6572600082015250565b7f4c756e6172793a20696e73756666696369656e742062616c616e636500000000600082015250565b610bc781610a31565b8114610bd257600080fd5b50565b610bde81610a43565b8114610be957600080fd5b50565b610bf581610a6f565b8114610c0057600080fd5b5056fea264697066735822122087b67e1c593affa56c33c7a4f1c39571b4b603f438963bdcb9416ee8922a27d264736f6c63430008040033",
  "linkReferences": {},
  "deployedLinkReferences": {}
}