{
  "_format": "hh-sol-artifact-1",
  "contractName": "Lunary",
  "sourceName": "contracts/Lunary.sol",
  "abi": [
    {
      "inputs": [
        {
          "internalType": "contract Luna",
          "name": "luna",
          "type": "address"
        },
        {
          "internalType": "contract Collectibles",
          "name": "collectibles",
          "type": "address"
        }
      ],
      "stateMutability": "nonpayable",
      "type": "constructor"
    },
    {
      "anonymous": false,
      "inputs": [
        {
          "indexed": true,
          "internalType": "address",
          "name": "seller",
          "type": "address"
        },
        {
          "indexed": true,
          "internalType": "address",
          "name": "buyer",
          "type": "address"
        },
        {
          "indexed": false,
          "internalType": "uint256",
          "name": "price",
          "type": "uint256"
        }
      ],
      "name": "CollectibleBought",
      "type": "event"
    },
    {
      "anonymous": false,
      "inputs": [
        {
          "indexed": true,
          "internalType": "address",
          "name": "previousOwner",
          "type": "address"
        },
        {
          "indexed": true,
          "internalType": "address",
          "name": "newOwner",
          "type": "address"
        }
      ],
      "name": "OwnershipTransferred",
      "type": "event"
    },
    {
      "inputs": [
        {
          "internalType": "uint256",
          "name": "tokenId",
          "type": "uint256"
        }
      ],
      "name": "buyCollectible",
      "outputs": [],
      "stateMutability": "nonpayable",
      "type": "function"
    },
    {
      "inputs": [],
      "name": "owner",
      "outputs": [
        {
          "internalType": "address",
          "name": "",
          "type": "address"
        }
      ],
      "stateMutability": "view",
      "type": "function"
    },
    {
      "inputs": [],
      "name": "renounceOwnership",
      "outputs": [],
      "stateMutability": "nonpayable",
      "type": "function"
    },
    {
      "inputs": [
        {
          "internalType": "address",
          "name": "newOwner",
          "type": "address"
        }
      ],
      "name": "transferOwnership",
      "outputs": [],
      "stateMutability": "nonpayable",
      "type": "function"
    }
  ],
  "bytecode": "0x60806040523480156200001157600080fd5b5060405162000fc938038062000fc98339818101604052810190620000379190620001db565b620000576200004b620000e160201b60201c565b620000e960201b60201c565b81600160006101000a81548173ffffffffffffffffffffffffffffffffffffffff021916908373ffffffffffffffffffffffffffffffffffffffff16021790555080600260006101000a81548173ffffffffffffffffffffffffffffffffffffffff021916908373ffffffffffffffffffffffffffffffffffffffff1602179055505050620002ac565b600033905090565b60008060009054906101000a900473ffffffffffffffffffffffffffffffffffffffff169050816000806101000a81548173ffffffffffffffffffffffffffffffffffffffff021916908373ffffffffffffffffffffffffffffffffffffffff1602179055508173ffffffffffffffffffffffffffffffffffffffff168173ffffffffffffffffffffffffffffffffffffffff167f8be0079c531659141344cd1fd0a4f28419497f9722a3daafe3b4186f6b6457e060405160405180910390a35050565b600081519050620001be8162000278565b92915050565b600081519050620001d58162000292565b92915050565b60008060408385031215620001ef57600080fd5b6000620001ff85828601620001c4565b92505060206200021285828601620001ad565b9150509250929050565b6000620002298262000258565b9050919050565b60006200023d826200021c565b9050919050565b600062000251826200021c565b9050919050565b600073ffffffffffffffffffffffffffffffffffffffff82169050919050565b620002838162000230565b81146200028f57600080fd5b50565b6200029d8162000244565b8114620002a957600080fd5b50565b610d0d80620002bc6000396000f3fe608060405234801561001057600080fd5b506004361061004c5760003560e01c8063715018a6146100515780638da5cb5b1461005b578063b04c8e8714610079578063f2fde38b14610095575b600080fd5b6100596100b1565b005b610063610139565b60405161007091906109a8565b60405180910390f35b610093600480360381019061008e9190610854565b610162565b005b6100af60048036038101906100aa9190610802565b61056d565b005b6100b9610665565b73ffffffffffffffffffffffffffffffffffffffff166100d7610139565b73ffffffffffffffffffffffffffffffffffffffff161461012d576040517f08c379a000000000000000000000000000000000000000000000000000000000815260040161012490610a1a565b60405180910390fd5b610137600061066d565b565b60008060009054906101000a900473ffffffffffffffffffffffffffffffffffffffff16905090565b6000600160009054906101000a900473ffffffffffffffffffffffffffffffffffffffff1673ffffffffffffffffffffffffffffffffffffffff166370a082316101aa610665565b6040518263ffffffff1660e01b81526004016101c691906109a8565b60206040518083038186803b1580156101de57600080fd5b505afa1580156101f2573d6000803e3d6000fd5b505050506040513d601f19601f82011682018060405250810190610216919061087d565b9050600080600260009054906101000a900473ffffffffffffffffffffffffffffffffffffffff1673ffffffffffffffffffffffffffffffffffffffff16630a09859d856040518263ffffffff1660e01b81526004016102769190610a5a565b60006040518083038186803b15801561028e57600080fd5b505afa1580156102a2573d6000803e3d6000fd5b505050506040513d6000823e3d601f19601f820116820180604052508101906102cb91906108a6565b93505092505080831015610314576040517f08c379a000000000000000000000000000000000000000000000000000000000815260040161030b90610a3a565b60405180910390fd5b600160009054906101000a900473ffffffffffffffffffffffffffffffffffffffff1673ffffffffffffffffffffffffffffffffffffffff166323b872dd61035a610665565b84846040518463ffffffff1660e01b815260040161037a939291906109c3565b602060405180830381600087803b15801561039457600080fd5b505af11580156103a8573d6000803e3d6000fd5b505050506040513d601f19601f820116820180604052508101906103cc919061082b565b50600260009054906101000a900473ffffffffffffffffffffffffffffffffffffffff1673ffffffffffffffffffffffffffffffffffffffff166342842e0e83610414610665565b876040518463ffffffff1660e01b8152600401610433939291906109c3565b600060405180830381600087803b15801561044d57600080fd5b505af1158015610461573d6000803e3d6000fd5b50505050600260009054906101000a900473ffffffffffffffffffffffffffffffffffffffff1673ffffffffffffffffffffffffffffffffffffffff166325468e71856104ac610665565b6040518363ffffffff1660e01b81526004016104c9929190610a75565b600060405180830381600087803b1580156104e357600080fd5b505af11580156104f7573d6000803e3d6000fd5b50505050610503610665565b73ffffffffffffffffffffffffffffffffffffffff168273ffffffffffffffffffffffffffffffffffffffff167fcb1f88e80175dcace691434ba7391578cbce0acb9507f15a9b83b43add96cd2e8360405161055f9190610a5a565b60405180910390a350505050565b610575610665565b73ffffffffffffffffffffffffffffffffffffffff16610593610139565b73ffffffffffffffffffffffffffffffffffffffff16146105e9576040517f08c379a00000000000000000000000000000000000000000000000000000000081526004016105e090610a1a565b60405180910390fd5b600073ffffffffffffffffffffffffffffffffffffffff168173ffffffffffffffffffffffffffffffffffffffff161415610659576040517f08c379a0000000000000000000000000000000000000000000000000000000008152600401610650906109fa565b60405180910390fd5b6106628161066d565b50565b600033905090565b60008060009054906101000a900473ffffffffffffffffffffffffffffffffffffffff169050816000806101000a81548173ffffffffffffffffffffffffffffffffffffffff021916908373ffffffffffffffffffffffffffffffffffffffff1602179055508173ffffffffffffffffffffffffffffffffffffffff168173ffffffffffffffffffffffffffffffffffffffff167f8be0079c531659141344cd1fd0a4f28419497f9722a3daafe3b4186f6b6457e060405160405180910390a35050565b600061074461073f84610ac3565b610a9e565b90508281526020810184848401111561075c57600080fd5b610767848285610b4d565b509392505050565b60008135905061077e81610c92565b92915050565b60008151905061079381610c92565b92915050565b6000815190506107a881610ca9565b92915050565b600082601f8301126107bf57600080fd5b81516107cf848260208601610731565b91505092915050565b6000813590506107e781610cc0565b92915050565b6000815190506107fc81610cc0565b92915050565b60006020828403121561081457600080fd5b60006108228482850161076f565b91505092915050565b60006020828403121561083d57600080fd5b600061084b84828501610799565b91505092915050565b60006020828403121561086657600080fd5b6000610874848285016107d8565b91505092915050565b60006020828403121561088f57600080fd5b600061089d848285016107ed565b91505092915050565b600080600080608085870312156108bc57600080fd5b60006108ca878288016107ed565b94505060206108db87828801610784565b935050604085015167ffffffffffffffff8111156108f857600080fd5b610904878288016107ae565b9250506060610915878288016107ed565b91505092959194509250565b61092a81610b05565b82525050565b600061093d602683610af4565b915061094882610bf1565b604082019050919050565b6000610960602083610af4565b915061096b82610c40565b602082019050919050565b6000610983601c83610af4565b915061098e82610c69565b602082019050919050565b6109a281610b43565b82525050565b60006020820190506109bd6000830184610921565b92915050565b60006060820190506109d86000830186610921565b6109e56020830185610921565b6109f26040830184610999565b949350505050565b60006020820190508181036000830152610a1381610930565b9050919050565b60006020820190508181036000830152610a3381610953565b9050919050565b60006020820190508181036000830152610a5381610976565b9050919050565b6000602082019050610a6f6000830184610999565b92915050565b6000604082019050610a8a6000830185610999565b610a976020830184610921565b9392505050565b6000610aa8610ab9565b9050610ab48282610b80565b919050565b6000604051905090565b600067ffffffffffffffff821115610ade57610add610bb1565b5b610ae782610be0565b9050602081019050919050565b600082825260208201905092915050565b6000610b1082610b23565b9050919050565b60008115159050919050565b600073ffffffffffffffffffffffffffffffffffffffff82169050919050565b6000819050919050565b60005b83811015610b6b578082015181840152602081019050610b50565b83811115610b7a576000848401525b50505050565b610b8982610be0565b810181811067ffffffffffffffff82111715610ba857610ba7610bb1565b5b80604052505050565b7f4e487b7100000000000000000000000000000000000000000000000000000000600052604160045260246000fd5b6000601f19601f8301169050919050565b7f4f776e61626c653a206e6577206f776e657220697320746865207a65726f206160008201527f6464726573730000000000000000000000000000000000000000000000000000602082015250565b7f4f776e61626c653a2063616c6c6572206973206e6f7420746865206f776e6572600082015250565b7f4c756e6172793a20696e73756666696369656e742062616c616e636500000000600082015250565b610c9b81610b05565b8114610ca657600080fd5b50565b610cb281610b17565b8114610cbd57600080fd5b50565b610cc981610b43565b8114610cd457600080fd5b5056fea26469706673582212207218f8cf032eda5b1bdab1f7a1d8c0dd38a05c79ec67fe0e51fea00cf9d4fae064736f6c63430008040033",
  "linkReferences": {},
  "deployedLinkReferences": {}
}